:020000040800F2
:10000000F00A002005010008172200080F2200084E
:1000100013220008E9110008C524000800000000B0
:100020000000000000000000000000004522000861
:10003000ED11000800000000192200084722000806
:100040001B0100081B0100081B0100081B01000820
:100050001B0100081B0100081B0100081B01000810
:100060001B0100081B0100081B0100081B01000800
:100070001B0100081B0100081B0100081B010008F0
:100080001B0100081B0100081B0100081B010008E0
:100090001B0100081B0100081B010008F1110008EA
:1000A0001B0100081B0100081B0100081B010008C0
:1000B0001B0100081B0100081B0100081B010008B0
:1000C0001B0100081B0100081B0100081B010008A0
:1000D0001B010008A12400081B0100081B010008E7
:1000E0001B0100081B0100081B010008DFF810D0ED
:1000F00000F0DAFF0048004741370008AFF3008006
:10010000F00A002005480047FEE7FEE7FEE7FEE7AD
:10011000FEE7FEE7FEE7FEE7FEE7FEE7ED0000088C
:100120002DE9FF4FA3B06FF0030223982399406895
:1001300002908968209123990988189102EB810126
:10014000084403902698C0081F9000F084831898F4
:10015000C0082190249801680398016024980399AD
:1001600050F8042F41F8042F50F8042F41F8042FC1
:1001700050F8042F41F8042F00220C9201921392A0
:10018000129210920F920E920D92209D029C50F8A6
:10019000042F41F8042F50F8042F41F8042F50F891
:1001A000042F41F8042F42684A6008310830039157
:1001B000249054F8040B0B9054F804AB54F8040B3F
:1001C000089054F8049BDDF884B054F8048BBBF11C
:1001D000000F54F8047B54F8046B00F0B28200BFA7
:1001E00055F8040B009054F8040B0A9000990B98F2
:1001F00000F07FFC11905046009900F07AFC1B90B3
:100200000099089800F075FC17904846009900F096
:1002100070FC1A904046009900F06BFC199038462B
:10022000009900F066FC16903046009900F061FCE1
:10023000159000990A9800F05CFC149055F8040B96
:10024000009054F8040B0B901199019800F0F9FB01
:1002500001901B99139800F0F4FB139017991298D2
:1002600000F0EFFB12901A99109800F0EAFB109042
:1002700019990F9800F0E5FB0F9016990E9800F071
:10028000E0FB0E9015990D9800F0DBFB0D90149992
:100290000C9800F0D6FB0C905046009900F029FC19
:1002A00011900099089800F024FC1B904846009992
:1002B00000F01FFC17904046009900F01AFC1A90BD
:1002C0003846009900F015FC19903046009900F06E
:1002D00010FC169000990A9800F00BFC15900099FC
:1002E0000B9800F006FC149055F8040B009054F89D
:1002F00004AB1199019800F0A4FB01901B9913988D
:1003000000F09FFB13901799129800F09AFB12903F
:100310001A99109800F095FB109019990F9800F019
:1003200090FB0F9016990E9800F08BFB0E9015998C
:100330000D9800F086FB0D9014990C9800F081FB4D
:100340000C900099089800F0D4FB11904846009951
:1003500000F0CFFB1B904046009900F0CAFB1790BD
:100360003846009900F0C5FB1A903046009900F01D
:10037000C0FB199000990A9800F0BBFB16900099F9
:100380000B9800F0B6FB15905046009900F0B1FBB9
:10039000149055F8040B009054F8040B0890119930
:1003A000019800F04EFB01901B99139800F049FB57
:1003B00013901799129800F044FB12901A99109814
:1003C00000F03FFB109019990F9800F03AFB0F9046
:1003D00016990E9800F035FB0E9015990D9800F0C7
:1003E00030FB0D9014990C9800F02BFB0C904846B4
:1003F000009900F07EFB11904046009900F079FBD7
:100400001B903846009900F074FB17903046009915
:1004100000F06FFB1A9000990A9800F06AFB19909F
:1004200000990B9800F065FB16905046009900F07B
:1004300060FB15900099089800F05BFB149055F84C
:10044000040B009054F8049B1199019800F0F9FAFC
:1004500001901B99139800F0F4FA139017991298D1
:1004600000F0EFFA12901A99109800F0EAFA109042
:1004700019990F9800F0E5FA0F9016990E9800F070
:10048000E0FA0E9015990D9800F0DBFA0D90149992
:100490000C9800F0D6FA0C904046009900F029FB29
:1004A00011903846009900F024FB1B9030460099CB
:1004B00000F01FFB179000990A9800F01AFB1A90A1
:1004C00000990B9800F015FB19905046009900F028
:1004D00010FB16900099089800F00BFB1590484609
:1004E000009900F006FB149055F8040B009054F8A6
:1004F000048B1199019800F0A4FA01901B991398AC
:1005000000F09FFA13901799129800F09AFA12903F
:100510001A99109800F095FA109019990F9800F018
:1005200090FA0F9016990E9800F08BFA0E9015998C
:100530000D9800F086FA0D9014990C9800F081FA4D
:100540000C903846009900F0D4FA1190304600998A
:1005500000F0CFFA1B9000990A9800F0CAFA1790A1
:1005600000990B9800F0C5FA1A905046009900F0D7
:10057000C0FA19900099089800F0BBFA1690484606
:10058000009900F0B6FA15904046009900F0B1FAD3
:10059000149055F8040B009054F8047B11990198BD
:1005A00000F04FFA01901B99139800F04AFA13904B
:1005B0001799129800F045FA12901A99109800F0C5
:1005C00040FA109019990F9800F03BFA0F90169985
:1005D0000E9800F036FA0E9015990D9800F031FA49
:1005E0000D9014990C9800F02CFA0C90304600995C
:1005F00000F07FFA119000990A9800F07AFA1B90A7
:1006000000990B9800F075FA17905046009900F089
:1006100070FA1A900099089800F06BFA1990484601
:10062000009900F066FA16904046009900F061FAD1
:1006300015903846009900F05CFA149055F8040BB8
:10064000009054F8046B1199019800F0FAF90190A8
:100650001B99139800F0F5F913901799129800F070
:10066000F0F912901A99109800F0EBF9109019997E
:100670000F9800F0E6F90F9016990E9800F0E1F946
:100680000E9015990D9800F0DCF90D9014990C98C6
:1006900000F0D7F90C9000990A9800F02AFA11900E
:1006A00000990B9800F025FA1B905046009900F035
:1006B00020FA17900099089800F01BFA1A90484603
:1006C000009900F016FA19904046009900F011FACE
:1006D00016903846009900F00CFA159030460099B3
:1006E00000F007FA1490ABF1010B1199019800F09A
:1006F000A8F901901B99139800F0A3F9139017998A
:10070000129800F09EF912901A99109800F099F939
:10071000109019990F9800F094F90F9016990E986F
:1007200000F08FF90E9015990D9800F08AF90D9050
:1007300014990C9800F085F90C90BBF1000F7FF430
:100740004FAD189810F0070B63D000BF55F8040B9D
:10075000009054F8040B0A9000990B9800F0C9F926
:1007600011905046009900F0C4F91B900099089828
:1007700000F0BFF917904846009900F0BAF91A90B6
:100780004046009900F0B5F919903846009900F0FC
:10079000B0F916903046009900F0ABF91590009929
:1007A0000A9800F0A6F9CDF82CA0DDF820A0CDF82D
:1007B0002090C1461490B84637460A9E1199019878
:1007C00000F03FF901901B99139800F03AF913904B
:1007D0001799129800F035F912901A99109800F0B4
:1007E00030F9109019990F9800F02BF90F90169985
:1007F0000E9800F026F90E9015990D9800F021F949
:100800000D9014990C9800F01CF90C90BBF1010BA1
:100810009CD1029820300290259901980860259873
:10082000139940F8041F129940F8041F109940F8DA
:10083000041F0F9940F8041F0E9940F8041F0D99EA
:1008400040F8041F0C994160083025901F98401E05
:100850001F907FF47FAC269810F0070850D02498A2
:1008600000250168039801602498209E001D2490B3
:100870000398029C001D0390DDF8609031682068A9
:1008800000F037F9294600F0DCF8371D261D054633
:10089000B9F1010429D0B4F1004F7DD2002C24DD40
:1008A000361F3F1F14F0010F09D057F8041F56F8E8
:1008B000040F00F01EF9294600F0C3F80546641045
:1008C00013D07968706800F014F9294600F0B9F87F
:1008D000054657F8081F56F8080F00F00AF9294690
:1008E00000F0AFF80546641EEBD125980560259809
:1008F000001D25900298001D0290B8F10108AED1AC
:100900002398189940684C1EA30820D0B3F1004FDB
:1009100056D2002B1BDD029A01469C4652F8045B1E
:1009200041F8045B52F8045B41F8045B52F8085B41
:1009300041F8085B52F8045C41F8045CBCF1010C1E
:10094000ECD1029900EB031001EB0311029114F0BA
:10095000030104BF27B0BDE8F08FB1F1004F44D2CE
:100960000029DCBF27B0BDE8F08F031F029A121FD9
:1009700011F0010F03D052F8040F43F8040F480898
:1009800004BF27B0BDE8F08F5168596052F8081FC6
:1009900043F8081F401E00E003E0F5D127B0BDE892
:1009A000F08F3968306800F0A4F8294600F049F863
:1009B0000546641E06F1040607F10407F1D194E729
:1009C0000299096840F8041B029951F8042F40F875
:1009D000042B51F8042F40F8042B4A68083140F8E2
:1009E000042B02915B1EEBD1B1E7029A126840F82A
:1009F000042B029A121D0292491EF6D127B0BDE8BF
:100A0000F08F70B504460498218008448000011FCF
:100A10001D461846A26000F009F8656070BDD2B2AC
:100A200001E000F8012B491EFBD270470022F6E7D7
:100A300010B513460A4604461946FFF7F0FF204654
:100A400010BDF0B480EA0102D40F4200B2EB410FB6
:100A500002D20246084611464A0042D0C30DDDB21A
:100A6000C1F3C752AD1A202D35DAC1F3160141F496
:100A7000000204B15242C5F1200602FA06F12A41F1
:100A80001044B3EBD05F23D0C4B1012DA0EBC35011
:100A900009DCF0BC4FF0004202EAC352DBB200F5C1
:100AA000000000F01BB9400000F1807000EBC35063
:100AB000A0F1807040EAD170490009E0490841EA9C
:100AC000C071A0EBC35000F50000400800EBC3501C
:100AD000F0BC00F0FAB86142012202EB4101001BB8
:100AE000F6E7F0BC704781F00041AAE780F00040D3
:100AF000A7E780EA010210B502F00043400022D0CF
:100B00004A001FD0010E01EB1261C0F35600C2F380
:100B1000560240F4000042F40002A0FB0220000450
:100B20007F39140400D0401C50EA124001D4400028
:100B3000491EC2B20C0604EBD010401C4008802AAB
:100B400002D003E0002010BD20F00100002900DAEF
:100B50000020184310BD30B480EA010202F00045C5
:100B600030F0004221F0004013D090B1C30DD40DFD
:100B7000C2F31601C0F31600E41A41F4000140F478
:100B800000027D34914201D3641C00E04900002C36
:100B900002DA30BC002070474FF40000002391427D
:100BA00001D3891A034340084FEA4101F7D151B1FB
:100BB000914202D14FF0004105E002D24FF0010115
:100BC00001E06FF0010103EBC450284430BC00F099
:100BD0007CB8C10F80EAE0700844CA079623002160
:100BE00000F07CB896230022114600F077B800F0A0
:100BF000004230F000400AD0C10D01F56071C0F331
:100C0000160042EA0151C208400711437047002014
:100C100001467047002801DBC0F10040002901DBDC
:100C2000C1F1004181427047002801DBC0F1004062
:100C3000002901DBC1F100418842704730B50B4605
:100C4000014600202022012409E021FA02F59D42FC
:100C500005D303FA02F5491B04FA02F52844151ED0
:100C6000A2F10102F1DC30BD2DE9F05F0546002064
:100C700092469B4688460646814640241BE028460D
:100C800041464746224600F030FA53465A46C01ABB
:100C9000914110D311461846224600F017FA2D1A3A
:100CA00067EB01084F4622460120002100F00EFAB2
:100CB00017EB00094E41201EA4F10104DFDC484679
:100CC00031462A464346BDE8F09F0029A8BF704739
:100CD000401C490008BF20F00100704710B4B0FA72
:100CE00080FC00FA0CF050EA010404BF10BC70470D
:100CF00049B1CCF1200421FA04F411FA0CF118BF27
:100D0000012121430843A3EB0C01CB1D4FEA0061F5
:100D10004FEA102042BF002010BC704700EBC350C8
:100D200010440029A4BF10BC7047401C490008BFF4
:100D300020F0010010BC70472DE9FE4F804681EA8B
:100D40000300C00F0C46009021F0004123F0004545
:100D5000B8EB0200A94105D24046214690461C4608
:100D60000B46024623F00040104347D0270DC7F33F
:100D70000A00C3F30A510290401A019040286BDA2E
:100D8000C3F3130040F4801B0098924620B1002367
:100D9000D2EB030A63EB0B0B01985946C0F14002FA
:100DA000504600F093F906460D4650465946019AC2
:100DB00000F0ABF910EB08006141002487EA115202
:100DC00084EAE7731A4340D0009A62B3019A012A79
:100DD0004FEA075215DC001B61EB02014FF00042A5
:100DE00002EA0752CDE90042001C41F5801132466B
:100DF0002B4600F0ABF903B0BDE8F08F404621462A
:100E0000F9E7001B61EB0201001C41F5801300189B
:100E10005B412018A2F5001747EB030140EAD570AB
:100E2000B6196D4111E06D084FEA360645EAC07506
:100E30004FEA0752001B61EB0201001C41F58011D3
:100E400049084FEA30000019514132462B4603B0A1
:100E5000BDE8F04F00F06BB900980122400000237C
:100E6000D0EB020263EBE073009821464FEAE07496
:100E7000B8EB000061EB0401E9E783F000435BE7B6
:100E800081F0004158E72DE9FE4F81EA030404F0A8
:100E9000004421F0004100944FF0000B23F0004388
:100EA00050EA01045ED052EA03045BD0C3F30A5453
:100EB000C1F30A552C44A4F2F3340194A0FB02546C
:100EC000C1F3130141F48011C3F3130343F48013FE
:100ED00001FB024400FB034E840A970A44EA815452
:100EE00047EA8357A4FB076802958D0A05FB07852F
:100EF0004FEA932C04FB0C542705029D4FEA065839
:100F000047EA1637B5EB08056EEB070C870E920E15
:100F100047EA811742EA8312A7FB0201B6EB0B01F5
:100F200064EB00042B0D43EA0C335E1844EB1C50B9
:100F3000DA465146E7FB0201C5F313044FEA0B33CF
:100F400043EA14534FEA0432019C43EA0603A4F136
:100F50000C040294009CCDE900B400F0F7F803B053
:100F6000BDE8F08F00200146F9E72DE9F04D81EA58
:100F7000030404F0004B21F0004514464FF0000A32
:100F800023F0004150EA050220D054EA01021DD0AE
:100F9000C5F30A570246C5F31303C1F31300C1F3A7
:100FA0000A5640F4801543F48013A7EB0608101B83
:100FB000D64608F2FD3873EB050002D308F10108AC
:100FC00001E092185B41B8F1000F03DA00200146FE
:100FD000BDE8F08D00204FF48011064684460EE0F7
:100FE000171B73EB050705D3121B63EB05030643C1
:100FF0004CEA010C49084FEA300092185B4150EA74
:101000000107EDD152EA030012D082EA040083EA1C
:101010000501084305D0101BAB4106D20122002375
:1010200006E000224FF0004302E06FF0010253108F
:101030001AEB06004CEB085110EB0A0041EB0B01D8
:10104000BDE8F04D00F073B8C1F30A52C1F31301CB
:1010500040F2FF3341F480119A4202DA0020014647
:10106000704740F233439A42A2F2334202DC5242CA
:1010700000F03BB800F02AB830B5041E71F100044E
:1010800004DB4FF00044404264EB0101141E73F195
:10109000000405DB1C464FF00043524263EB04039F
:1010A000994208BF904230BD064C074D06E0E0680B
:1010B00040F0010394E8070098471034AC42F6D39F
:1010C000FFF718F8003A0008203A0008202A04DB4D
:1010D000203A00FA02F1002070479140C2F120034B
:1010E00020FA03F3194390407047202A04DB203A8A
:1010F00021FA02F00021704721FA02F3D040C2F138
:1011000020029140084319467047202A06DBCB177E
:10111000203A41FA02F043EAE07306E041FA02F3B2
:10112000D040C2F12002914008431946704710B5E3
:10113000141E73F1000408DA401C41F100019218FA
:101140005B411A4301D120F0010010BD2DE9F04DA3
:1011500092469B4611B1B1FA81F202E0B0FA80F2F8
:1011600020329046FFF7B2FF04460F4640EA0A00DD
:1011700041EA0B0153465A46084313D0114653EA3D
:10118000010019D0C8F140025046FFF7AEFF0546F6
:101190000E46504659464246FFF798FF084305D091
:1011A000012004E020463946BDE8F08D00200543CB
:1011B00046EAE0762C4337430A986305E40AA0EB3D
:1011C00008000022FD0A44EA47540A3002D50020F4
:1011D0000146E9E7010510196941DDE908450019F3
:1011E0006941BDE8F04DA2E700BFFEE7704700008F
:1011F00010B5202000F066F820200149086010BDDD
:101200001404014070B50446002594F8210002281A
:1012100003D00420A063012548E02068006820F086
:101220000E00216808602068006820F00100216835
:1012300008601F492068884201D1012026E01C492E
:1012400014312068884201D110201FE0184928314C
:101250002068884201D1801518E015493C3120688A
:10126000884201D1801411E0114950312068884230
:1012700002D14FF4803009E00D4964312068884282
:1012800002D14FF4801001E04FF080700849083916
:101290004860012084F8210000BF002084F820006D
:1012A00000BF606B10B12046616B8847284670BD57
:1012B00008000240202802D10121014A1170704724
:1012C0002B00002010B5044604480068204020B1DF
:1012D000024804602046FFF7EDFF10BD14040140F2
:1012E0002DE9F8470346002294466EE14FF00108CD
:1012F00008FA02F4D1F8008008EA0400A0427DD187
:10130000DFF8DCA2D1F80480A8EB0A09D0453AD076
:1013100014DCB8F1030F50D009DCB8F1000F31D064
:10132000B8F1010F1CD0B8F1020F49D120E0B8F19B
:10133000110F18D0B8F1120F42D11EE0B9F5881F75
:1013400025D006DCB9F5803F20D0B9F5801F37D114
:101350001AE0B9F5001F18D0B9F5041F30D117E015
:10136000D1F80CC02DE0D1F80C8008F1040C28E075
:10137000D1F80C8008F1080C23E0D1F80C8008F1BA
:101380000C0C1EE000BF00BF00BF00BF00BF00BFCD
:10139000D1F80880B8F1000F02D14FF0040C0BE037
:1013A000D1F80880B8F1010F03D14FF0080C1C618F
:1013B00002E04FF0080C5C6103E04FF0000C00E02D
:1013C00000BF00BFFF2801D8984601E003F10408E0
:1013D0004646FF2802D84FEA820803E0A2F1080837
:1013E0004FEA88084746D6F800804FF00F0909FAFF
:1013F00007F928EA09080CFA07F900E088E048EA4A
:101400000908C6F80080D1F8048008F08058B8F1C7
:10141000805F7DD100BFDFF8CC81D8F8188048F01C
:101420000108DFF8C091C9F81880C846D8F81880BC
:1014300008F00108CDF8008000BF00BF4FEAB938BE
:101440004FEA920958F829504FEA82784FEA187902
:101450004FF00F0808FA09F825EA0805DFF8888137
:10146000434502D14FF0000816E0DFF88081434584
:1014700002D14FF001080FE0DFF87481434502D13B
:101480004FF0020808E0DFF86C81434502D14FF0CD
:10149000030801E04FF004084FEA82794FEA197916
:1014A00008FA09F848EA0505DFF84C814FEA920985
:1014B00048F82950D1F8048008F48038B8F5803F06
:1014C0000AD1DFF83881D8F8008048EA0008DFF850
:1014D0002C91C9F8008009E0DFF82081D8F800805D
:1014E00028EA0008DFF81491C9F80080D1F80480D8
:1014F00008F40038B8F5003F10D1DFF8008108F19A
:101500000408D8F8008048EA0008DFF8F09000E00E
:101510005AE009F10409C9F800800DE0DFF8DC8029
:1015200008F10408D8F8008028EA0008DFF8CC9019
:1015300009F10409C9F80080D1F8048008F4801882
:10154000B8F5801F0ED1DFF8B48008F10808D8F88C
:10155000008048EA0008DFF8A49009F10809C9F8FA
:1015600000800DE0DFF8948008F10808D8F80080CA
:1015700028EA0008DFF8849009F10809C9F800801A
:10158000D1F8048008F40018B8F5001F0ED1DFF878
:101590006C8008F10C08D8F8008048EA0008DFF8F1
:1015A0005C9009F10C09C9F800800DE0DFF84C806F
:1015B00008F10C08D8F8008028EA0008DFF83C9011
:1015C00009F10C09C9F80080521CD1F8008028FAF2
:1015D00002F8B8F1000F7FF489AEBDE8F88700008B
:1015E000000011100010024000080140000C0140F2
:1015F00000100140001401400800014000040140B7
:10160000024693680B400BB1012000E000207047B8
:1016100010B5C26821EA020302EA010443EA044366
:10162000036110BD0AB1016101E00B040361704761
:10163000014800687047000014000020034800685B
:1016400003490978084401490860704714000020E4
:101650001C00002010B50848006840F01000064942
:101660000860052000F080F80F2000F007F800F077
:101670002BF8002010BD00000020024070B5044689
:101680000E4800784FF47A71B1FBF0F00C4909680C
:10169000B1FBF0F5284600F0E3FB08B1012070BD76
:1016A000102C07D200222146501E00F01EF80548DB
:1016B000046001E00120F2E70020F0E71C000020B8
:1016C000000000201800002070470146084600284E
:1016D00009DB00F01F0301229A4043099B0003F13C
:1016E000E023C3F8002100BF70472DE9F05F80467A
:1016F0000D461646002700F0F7FE074639462A46F3
:10170000334601F00700C0F1070ABAF1040F02D90D
:101710004FF0040A01E0C0F1070AD14600F1040AC3
:10172000BAF1070F02D24FF0000A01E0A0F1030A5C
:10173000D4464FF0010A0AFA09FAAAF1010A0AEAA4
:10174000020A0AFA0CFA4FF0010B0BFA0CFBABF190
:10175000010B0BEA030B4AEA0B042146404600F05A
:10176000CBFEBDE8F09F000000BF00F00702064B73
:1017700019684FF6FF031940044B0B4343EA02215B
:10178000014B196000BF70470CED00E00000FA0546
:1017900070B504460D460CB9012070BD5A4800686A
:1017A00000F00700A8420ED25748006820F007005A
:1017B0002843554908600846006800F00700A84221
:1017C00001D00120E9E7207800F0020002281DD1B5
:1017D000207800F00400042805D14C48406840F40B
:1017E000E0604A494860207800F00800082805D1E8
:1017F0004648406840F46050444948604348406867
:1018000020F0F000A168084340494860207800F0CB
:10181000010078B36068012806D13C48006800F4F4
:10182000003090B90120B8E76068022806D1374837
:10183000006800F0007040B90120AEE7334800684E
:1018400000F0020008B90120A7E73048406820F006
:101850000300616808432D494860FFF7E9FE06462A
:1018600009E0FFF7E5FE801B41F28831884202D98A
:10187000032092E707E02548406800F00C0061680B
:10188000B0EB810FEDD12048006800F00700A842BE
:101890000ED91D48006820F0070028431A49086047
:1018A0000846006800F00700A84201D0012074E754
:1018B000207800F00400042807D11448406820F480
:1018C000E060E168084311494860207800F00800B2
:1018D000082808D10D48406820F46050216940EA8A
:1018E000C1000A49486000F03FF808494968C1F35F
:1018F0000311074A515CC840064908600648006861
:10190000FFF7BCFE002048E7002002400010024024
:101910007439000800000020180000200148006809
:10192000704700000000002000B5FFF7F7FF0449F2
:101930004968C1F30221034A515CC84000BD000060
:10194000001002408439000800B5FFF7E7FF0449A2
:101950004968C1F3C221034A515CC84000BD000080
:101960000010024084390008F0B585B00FF26C0C0D
:101970009CE8E01001A8A0E8E0101CA52D680095E7
:1019800000210022002300240020194D696801F085
:101990000C05F5B1042D02D0082D19D101E0154830
:1019A00019E001ADC1F38346AC5D01F4803555B15A
:1019B0000F4D6D68C5F340451DF805200D4D65437D
:1019C000B5FBF2F302E00C4D04FB05F3184602E010
:1019D00000BF084800BF00BF05B0F0BD020304050A
:1019E000060708090A0B0C0D0E0F1010010200006B
:1019F0000010024000127A0000093D00F8B50446CC
:101A00000CB90120F8BD207800F00100002878D042
:101A1000F848406800F00C0004280CD0F5484068F5
:101A200000F00C00082811D1F248406800F4803022
:101A3000B0F5803F0AD1EF48006800F4003000287C
:101A40005FD0606800285CD10120DBE700BF6068E0
:101A5000B0F5803F06D1E748006840F48030E549A2
:101A6000086028E0606858B9E248006820F48030D7
:101A7000E04908600846006820F4802008601AE009
:101A80006068B0F5A02F0BD1DA48006840F48020E0
:101A9000D84908600846006840F4803008600AE0D1
:101AA000D448006820F48030D249086008460068B5
:101AB00020F48020086000BF606888B1FFF7B8FD9F
:101AC000054606E0FFF7B4FD401B642801D903205A
:101AD00098E7C848006800F400300028F2D010E011
:101AE000FFF7A6FD054606E0FFF7A2FD401B6428B0
:101AF00001D9032086E7BF48006800F400300028C1
:101B0000F2D1207800F00200022857D1B94840688D
:101B100000F00C0050B1B748406800F00C000828F5
:101B200018D1B448406800F4803098B9B1480068D2
:101B300000F0020020B12069012801D0012061E7F6
:101B4000AC48006820F0F800616940EAC100A9498A
:101B5000086033E02069E8B10120A7490860FFF779
:101B600067FD054606E0FFF763FD401B022801D92B
:101B7000032047E79F48006800F002000028F2D0E9
:101B80009C48006820F0F800616940EAC10099496A
:101B9000086013E0002098490860FFF749FD0546FA
:101BA00006E0FFF745FD401B022801D9032029E785
:101BB0009048006800F002000028F2D1207800F080
:101BC000080008282DD1A069B8B101208B49086010
:101BD000FFF72EFD054606E0FFF72AFD401B022811
:101BE00001D903200EE78348406A00F00200002874
:101BF000F2D0012000F012FB13E000207F490860C2
:101C0000FFF716FD054606E0FFF712FD401B022810
:101C100001D90320F6E67748406A00F00200002868
:101C2000F2D1207800F00400042873D10027714815
:101C3000C06900F0805070B900BF6E48C06940F0C4
:101C400080506C49C8610846C06900F0805000901F
:101C500000BF00BF01276A48006800F48070B0B977
:101C60006748006840F4807065490860FFF7E0FC51
:101C7000054606E0FFF7DCFC401B642801D9032081
:101C8000C0E65F48006800F480700028F2D000BF12
:101C9000E068012806D15748006A40F00100554924
:101CA000086227E0E06858B95248006A20F0010055
:101CB000504908620846006A20F00400086219E0F2
:101CC000E06805280BD14B48006A40F00400494900
:101CD00008620846006A40F0010008620AE04548D0
:101CE000006A20F00100434908620846006A20F0BB
:101CF0000400086200BFE068A0B1FFF799FC054648
:101D000009E0FFF795FC401B41F28831884202D977
:101D1000032077E622E03748006A00F0020000283E
:101D2000EFD012E0FFF784FC054608E0FFF780FCE7
:101D3000401B41F28831884201D9032062E62D48D8
:101D4000006A00F002000028F0D1012F05D12948D7
:101D5000C06920F080502749C86100BFE069C8B35E
:101D60002448406800F00C00082860D0E069022890
:101D700048D1002020490866FFF75AFC054606E0D6
:101D8000FFF756FC401B022801D903203AE6194808
:101D9000006800F000700028F2D1206AB0F5803FA2
:101DA00007D11448406820F40030A1680843114965
:101DB0004860D4E9080108430E49496821F47411C8
:101DC00008430C49486001200B490866FFF730FCC6
:101DD000054607E03DE0FFF72BFC401B022801D938
:101DE00003200FE60348006800F000700028F2D0DE
:101DF0002FE00000001002400000424280044242F6
:101E000000700040002014490866FFF711FC0546E9
:101E100006E0FFF70DFC401B022801D90320F1E585
:101E20000E48006800F000700028F2D111E0E0696F
:101E3000012800D1E6E50948466806F48031206AA9
:101E4000814204D106F47011606A814201D0012000
:101E5000D8E50020D6E50000000042420010024014
:101E600070B504462546681EB0F1807F01D301207D
:101E70000FE0681E4FF0E02148610F214FF0FF3066
:101E800000F03AFB00204FF0E02188610720086154
:101E9000002070BD704700002DE9F047044620681F
:101EA00005682068C668206847694FF00008C14689
:101EB00005F00F08B8F1000F0AD105F0200038B185
:101EC00006F0200020B1204600F0EBF9BDE8F087D5
:101ED000B8F1000F71D007F0010018B906F4907046
:101EE00000286AD005F0010030B106F4807018B106
:101EF000E06B40F00100E06305F0040030B107F052
:101F0000010018B1E06B40F00200E06305F0020050
:101F100030B107F0010018B1E06B40F00400E0635D
:101F200005F0080048B106F0200010B907F00100E4
:101F300018B1E06B40F00800E063E06B68B305F0B7
:101F4000200028B106F0200010B1204600F0A9F9C9
:101F500020684069C0F38019E06B00F0080010B9F8
:101F6000B9F1000F22D0204600F07BF920684069CB
:101F700000F04000B0B12068406920F040002168C6
:101F80004861606B50B11848616B4863606BFFF744
:101F900039F910B1606B416B88470CE02046FFF7C0
:101FA00079FF08E02046FFF775FF04E02046FFF7C1
:101FB00071FF0020E06389E7FFE705F0800030B1A2
:101FC00006F0800018B1204600F03AFA7EE705F0EE
:101FD000400030B106F0400018B1204600F051F941
:101FE00074E700BF72E700004F22000810B50446F6
:101FF0000CB9012010BDA06900B100E000BF94F849
:10200000390028B9002084F83800204600F028F86C
:10201000242084F839002068C06820F4005021682A
:10202000C860204600F08EF92068006920F49040D6
:10203000216808612068406920F02A002168486111
:102040002068C06840F400502168C8600020E06348
:10205000202084F8390084F83A000020CAE7000004
:1020600010B586B004462849206888424AD100BF8E
:1020700000BF2648806940F0040024498861084672
:10208000806900F00400019000BF00BF00BF00BFE6
:1020900000BF0846806940F00400886108468069F6
:1020A00000F00400019000BF00BF00BF00BF00BFF0
:1020B0000846806940F4804088610846806900F4E1
:1020C0008040019000BF00BF00BF48150290022071
:1020D0000390012004900320059002A90C48FFF70B
:1020E000FFF84FF4806002900020039002A9084896
:1020F000FFF7F6F82520FFF7E8FA0322114625201E
:10210000FFF7F3FA06B010BD00380140001002409E
:102110000008014010B5034693F83A0020282FD15B
:1021200001B10AB9012010BD00BF93F838000128A1
:1021300001D10220F7E7012083F8380000BF99623F
:102140009A85DA850020D863222083F83A0000BF00
:10215000002083F8380000BF1868C06840F4807021
:102160001C68E0601868406940F001001C6860610C
:102170001868C06840F020001C68E0600020D2E7CA
:102180000220D0E71D4A0168914236D11C490988D6
:1021900001F4004189BB1A49098801F4804171B1F9
:1021A000184909780A2903D00021154A118024E032
:1021B0001349098841F40041114A11801DE0114979
:1021C00009780D2906D10E49098841F480410C4A4D
:1021D000118012E00B490978094A1288C2F30D02F6
:1021E000094B995406490988491C054A1180114632
:1021F0000988C72901DD002111807047003801409E
:10220000280000202A000020E4040020704700BFBE
:10221000FEE700BFFEE770477047000008B50849B9
:102220000968C9084FF47A72B1FBF2F14143009199
:1022300000BF00BF00994A1E00920029F9D108BDD5
:1022400000000020704710B5FFF7F8F910BD70B519
:1022500005466C6A0020E085E0842046FFF71AFE00
:1022600070BD0168C96821F490710268D16001688D
:10227000496921F0010102685161202180F83A107A
:10228000704710B504462068C06820F040002168FF
:10229000C860202084F839002046FFF7B7FF0020EF
:1022A00010BD70B5044694F83A00222847D1A068C2
:1022B000B0F5805F0CD1206950B90025A66A20686E
:1022C0004068C0F308003080A06A801CA06215E05E
:1022D000A56A0026A068B0F5805F03D0A06828B981
:1022E000206918B920684068287004E020684068B8
:1022F00000F07F002870A06A401CA062E08D401EA4
:1023000080B2E085C8B92068C06820F0200021684C
:10231000C8602068C06820F480702168C8602068A8
:10232000406920F0010021684861202084F83A00CB
:102330002046FFF727FF002070BD0020FCE70220A9
:10234000FAE7000070B504462168096921F440519C
:10235000E2681143226811612269A1681143626930
:1023600041EA02052168C96841F20C6291432943A0
:102370002268D1602168496921F44071A269114342
:10238000226851612D4A2168914202D1FFF7DCFA9F
:1023900001E0FFF7C9FA00EBC00101EB0011626830
:1023A0009200B1FBF2F100EBC00202EB0012636895
:1023B0009B00B2FBF3F26423B2FBF3F202EBC20325
:1023C00003EB0212A1EB8201322202EB0111642223
:1023D000B1FBF2F101F0F00100EBC00202EB0012E0
:1023E00063689B00B2FBF3F26423B2FBF3F201EBF0
:1023F000021200EBC00101EB001163689B00B1FB0E
:10240000F3F100EBC00303EB00136668B600B3FB07
:10241000F6F36426B3FBF6F303EBC30606EB0313F4
:10242000A1EB8301322303EB01116423B1FBF3F130
:1024300001F00F0111442268916070BD0038014025
:10244000014691F83900212828D18868B0F5805FCD
:102450000BD1086948B90A6A1088C0F308000B68F4
:102460005860086A801C086205E00B6A581C086204
:1024700018780B685860C88C401E80B2C88458B960
:102480000868C06820F080000B68D8600868C068E1
:1024900040F040000B68D860002070470220FCE745
:1024A00010B50648FFF7F8FC00BF012204490348B5
:1024B000FFF730FE0028F8D110BD0000AC05002069
:1024C0002A00002000BFFEE70FB4054B10B503A99A
:1024D000044A029800F0F6F810BC5DF814FB000006
:1024E000E53300082400002002480068C0F3022001
:1024F000704700000CED00E010B5002804DB0A076F
:10250000130E054A135406E00A07140E034A00F09E
:102510000F031B1FD45410BD00E400E018ED00E0D1
:1025200002E008C8121F08C1002AFAD1704770479C
:10253000002001E001C1121F002AFBD170470000FA
:102540002DE9FF5F82B00021DDE90430020DDDF8E6
:1025500040B0034318D044F61050A2F2FF32424379
:102560001514119801281FD0A5EB0B00401C5FEA41
:10257000000A4FF000064E4FDFF83891B046504643
:1025800015D5CAF1000413E0119801244AA30128CB
:1025900001D16FEA0B010298119AC0E90031C0E93C
:1025A000024206B0BDE8F09FCBF10000DFE7044631
:1025B0000021404A491842EB0450CDE9001012E0D6
:1025C000E00707D032463B4640464946FEF75BFCF3
:1025D0008046894632463B4610461946FEF753FC74
:1025E00006460F466410002CEAD1DDE90401DDE95E
:1025F0000023BAF1000F06DAFEF745FC42464B46CF
:10260000FEF741FC05E0FEF7B0FC42464B46FEF704
:10261000ACFC04460E460022284BFEF72DFD03D8E5
:102620004FF0FF30014607E00022254B204631469F
:10263000FEF782FBFEF708FD102409E0002C0ADB00
:102640000A220023FEF710FB039B30321A55641E4A
:1026500050EA0102F2D1641C039AC4F1110314443C
:10266000119A012A03D0012208430DD10AE0084340
:1026700004D000204FF0110B119072E7A3EB0B0573
:102680006D1E0DE05B4504DD4FF0000205F1010514
:1026900004E003DA4FF00002A5F10105002AECD0B6
:1026A00002981199C0E90231C0E9004579E70000BC
:1026B000000014400000F03F300000000000F04334
:1026C0000000E03F2DE9FF4F95B09A468846064648
:1026D0000025EEE1252877D100242746F94A01217B
:1026E000039400E0044316F8013F203B01FA03F095
:1026F0001042F7D130782A2811D06FF02F033078AC
:10270000A0F13002092A16D8039A44F0020402EB21
:10271000820203EB42021044761C0390EFE758F864
:10272000042B0392002A03DA504244F4005403902D
:1027300044F00204761C30782E2816D116F8010FCA
:1027400044F004042A280DD06FF02F023078A0F155
:102750003003092B09D807EB870302EB4303C718A3
:10276000761CF3E758F8047B761C30786C280FD081
:1027700006DC4C2817D068280DD06A2814D104E054
:10278000742810D07A280FD10DE044F400140AE028
:1027900044F4801401E044F440147278824202D17F
:1027A00004F58014761C761C307866280BD013DC78
:1027B000582877D009DC002875D04528F6D046285F
:1027C000F4D047281AD193E118E0632835D0642863
:1027D00079D0652812D18BE1702873D008DC672886
:1027E000F1D069286FD06E280DD06F2806D1ACE0EB
:1027F00073282CD0752874D0782853D05246179956
:1028000090476D1C54E1C4F30250022809D00328FC
:102810000DD0D8F8001004280DD00D6008F1040880
:1028200046E1D8F80010EA17C1E90052F6E7D8F8F7
:1028300000100D80F2E70D70F0E718F8041B8DF81A
:10284000001000208DF80100EB46012003E058F84D
:1028500004BB4FF0FF3061074FF0000102D40DE0E0
:1028600009F101018946B9420FDA8145F8DB1BF80D
:1028700009100029F4D108E009F1010189468142DB
:10288000FADB1BF809100029F6D103985346A0EB98
:10289000090721463846179A00F080FA284400EBD1
:1028A000090507E044E008E10DE01BF8010B524682
:1028B00017999047B9F10109F7D253462146384696
:1028C000179AF2E039E00A21C4F302524FF0000BEC
:1028D0000091022A06D058F8040BC117032A09D028
:1028E0000AE023E008F1070020F00702F2E8020105
:1028F000904605E000B2C117042A01D140B2C117C9
:10290000002906DA0A460021404261EB02012D222D
:1029100002E0220504D52B228DF80420012203E0D9
:10292000E20701D02022F7E7914657E00A2100E0B4
:1029300010214FF0000B00910BE010214FF0000B25
:1029400044F004040827009103E008204FF0000B36
:102950000090C4F30252022A05D058F8040B00215B
:10296000032A08D008E008F1070020F00702F2E887
:102970000201904603E080B2042A00D1C0B24FF0B9
:10298000000922072AD53278702A07D0DDF800C066
:102990008CF0100C5CEA0B0C05D00EE040228DF898
:1029A0000420012208E050EA010306D030238DF80C
:1029B00004308DF8052002229146009B83F0080325
:1029C00053EA0B030AD150EA010201D1620705D58F
:1029D00030228DF804204FF001097F1E3278582AEA
:1029E00004D039A20C920CAA02920BE03BA2F9E7A8
:1029F0005B46009AFEF738F90C9B9B5C029A521ECC
:102A00000292137050EA0102F2D1029804A9081A46
:102A100000F1200B600702D524F4803400E0012788
:102A20005F4502DDA7EB0B0000E0002000EB0B018F
:102A3000009003984944401A0390E00306D453469B
:102A40002146179A039800F0A9F90544002706E0EB
:102A500001A85246C05D179990476D1C7F1C4F45D9
:102A6000F6DBE0030CD553462146179A039800F095
:102A700095F9054404E030205246179990476D1CA3
:102A80000099481E00900029F5DC08E002980299A0
:102A900052460078491C0291179990476D1CBBF172
:102AA0000001ABF1010BF1DC5BE100F065F90544DD
:102AB000761C307800287FF40DAE19B02846BDE8AA
:102AC000F08F0000092801003031323334353637B9
:102AD000383961626364656600000000303132336A
:102AE000343536373839414243444546000000000A
:102AF000600700D4062708F1070020F00700F0E87F
:102B00000223804603F0004C5FEA0C0001D097A03E
:102B100009E0200501D596A005E0E00701D095A0C9
:102B200001E0AFF24C001390307823F000436528A9
:102B30000CD006DC452809D046281DD047287FD177
:102B40003BE0662818D067287AD136E00021112FA3
:102B500001DB112000E0781CCDE9000104A90CA8DC
:102B6000FFF7EEFCDDE90D010C9A4FF0000B07F1C9
:102B70000109109200914EE04FF000400097CDE91E
:102B8000011004A90CA8FFF7DBFCDDE90D020C9B8A
:102B90000F994FF0000B91461093009211B9791CD8
:102BA00000EB0109B7EB090003D4C0F1FF3B07F1CB
:102BB0000109A9EB0700019042E0012F00DA01278B
:102BC0000021112F01DD112000E03846CDE9000180
:102BD00004A90CA8FFF7B4FCDDE90D010C9A0091E3
:102BE0004FF0000BB946109221070FD4009A4A45C6
:102BF00003DA914601E0A9F10109B9F1010F05DD00
:102C0000109AA9F10101515C3029F4D0B84202DADE
:102C100010F1040F03DA0121CDE9011010E00028C2
:102C200003DC8344A9EB000102E0411C494500DDBF
:102C30008946A0EB0B00401C01904FF00040029031
:102C4000200705D40198484502DB4FF0FF30019082
:102C500000208DF84B0002980DF14B07B0F1004FAA
:102C600025D002200C902B200D90029800280CDA21
:102C7000404202902D200D9007E00A210298FDF7B6
:102C8000DDFF3031029007F8011D0C99481E0C90B1
:102C90000029F2DC02980028EFD1791E0D98087007
:102CA000307800F0200040F0450007F8020D11A830
:102CB000C01BC01D02901398007800B1012000EBEA
:102CC0000901019801EBE071029801440398401A50
:102CD000401E0390E00306D453462146179A0398FA
:102CE00000F05CF805441398007818B15246179923
:102CF00090476D1CE00323D553462146179A03984D
:102D000000F04CF805441BE0BBF1000F07DB009816
:102D1000584504DD1098179910F80B0001E0179939
:102D200030205246904701980BF1010B401E05F1EF
:102D30000105019004D12E205246179990476D1C31
:102D4000B9F10001A9F10109DEDC05E017F8010B7A
:102D50005246179990476D1C0299481E029000290F
:102D6000F4DC53462146179A03989EE62D00000096
:102D70002B000000200000002DE9F0410446002552
:102D80001E461746880404D405E039462020B04783
:102D90006D1C641EF9D52846BDE8F0812DE9F0418F
:102DA000044600251E469046C80301D5302700E0A2
:102DB0002027880404D505E041463846B0476D1CFD
:102DC000641EF9D52846BDE8F0817CB504460D4661
:102DD000002000F085F9012000F082F90622694602
:102DE000072000F0AAF99DF8001009049DF80120C1
:102DF00041EA02219DF802201143C1F31100FDF7C1
:102E0000E8FE20609DF8031009049DF8042041EAC3
:102E100002219DF805201143C1F31100FDF7D9FEF1
:102E200028607CBD2DE9FC5F05460E464FF000088A
:102E300000270020019082468346002407E055F8D1
:102E400024104046FDF7FDFD8046601C84B2B4426C
:102E5000F5DB3046FDF7C6FE014600904046FDF723
:102E60007AFE804600241BE055F824004146FDF719
:102E7000DBFE13D205EB840148684146FDF7CAFE2C
:102E80000CD20194BAF1000F06D00198A0EB0A0011
:102E90001FFA80F9CB447F1CDDF804A0601C84B2CB
:102EA000B442E1DB002F08DD9BFBF7F140F6B830C0
:102EB00090FBF1F080B2BDE8FC9F0020FBE7000032
:102EC0002DE9F04F85B005460E4617462868049058
:102ED000D5F8008030680390D6F80090012423E0F4
:102EE00055F824100498FDF795FE02D255F82400F9
:102EF000049055F824104046FDF796FE01D255F88F
:102F0000248056F824100398FDF784FE02D256F868
:102F10002400039056F824104846FDF785FE01D2A0
:102F200056F82490601C84B2BC42D9DB4146049818
:102F3000FDF7D9FD494601900398FDF782FD009009
:102F40000199FDF7D6FD834649460398FDF7CBFD71
:102F5000414601900498FDF774FD00900199FDF73A
:102F6000C8FD59460290FDF7F6FD824651460B48D2
:102F7000FDF7BFFD514602900948FDF7BAFD5146E5
:102F80000090FDF7B6FD01900299FDF75AFD8346CA
:102F90000449FDF756FD05B0BDE8F08FFED4F241BF
:102FA000713D34C2A4B0BD4270B50024002501219A
:102FB000212000F007F91F2000F092F80646FDF7E7
:102FC00011FE0446202000F08BF80646FDF70AFEAD
:102FD00005464FF086412046FDF71CFE09D24FF012
:102FE00076512846FDF785FD06462146FDF729FD69
:102FF00070BD4FF087412046FDF775FD04464FF048
:1030000076512846FDF775FD06462146FDF719FD68
:10301000EEE7000000B585B000BF00BF2D48806915
:1030200040F008002B4988610846806900F00800DC
:10303000009000BF00BF00BF2020019026480290F2
:103040000120039001A92548FEF74AF90222002138
:103050001720FEF74AFB1720FEF737FB00F0FEF9BA
:1030600000F0A7F8C021022000F0ACF800210320F6
:1030700000F0A8F80021042000F0A4F800210520A9
:1030800000F0A0F80021062000F09CF84F21082055
:1030900000F098F80321092000F094F82A210A2072
:1030A00000F090F82F210C2000F08CF82F210D203B
:1030B00000F088F80121212000F084F8642000F05D
:1030C000AFF8002000F00CF8012000F009F805B07E
:1030D00000BD00000010024000002110000C014063
:1030E00070B50446002500F079FAAE2000F040FAF1
:1030F00000F0BAFA18B100F097FA012070BD20462E
:1031000000F036FA00F0B0FA18B100F08DFA0120A4
:10311000F4E700F063FAAF2000F02AFA00F0A4FA16
:1031200018B100F081FA0120E8E7002000F0F2F980
:10313000054600F079FA2846E0E72DE9F041074618
:103140000E46154600F04AFAAE2000F011FA00F0E3
:103150008BFA20B100F068FA0120BDE8F081384612
:1031600000F006FA00F080FA18B100F05DFA0120D4
:10317000F3E700F033FAAF2000F0FAF900F074FA48
:1031800018B100F051FA0120E7E700240BE0691EB6
:10319000A14201D0012100E00021084600F0BAF967
:1031A0003055601CC4B2AC42F1DB00F03DFA0020A7
:1031B000D3E710B54021092000F004F80A2000F000
:1031C0002FF810BD70B505460C4600F007FAAE208A
:1031D00000F0CEF900F048FA18B100F025FA01200D
:1031E00070BD284600F0C4F900F03EFA18B100F0B6
:1031F0001BFA0120F4E7204600F0BAF900F034FA97
:1032000018B100F011FA0120EAE700F00DFA0020F1
:10321000E6E7000001490860704700002000002038
:1032200010B504464FF47A7104FB01F000F002F887
:1032300010BD000070B5034600224FF0E02675690E
:103240000D4E366803FB06F44FF0E026B16910E03E
:103250004FF0E026B06988420BD0884202D20E1AA5
:10326000324402E02E1A0E4432440146A24200D3F8
:1032700000E0EDE700BF70BD200000200025002425
:103280000026A146FFF7C6FE00F070FAFFF78CFE9D
:103290008246FDF7ACFC07463A460B4630A0FFF7E6
:1032A00013F95CE032480078002858D000203049FB
:1032B000087030493048FFF788FD30492E4800F04B
:1032C00075FA2E49091D2B4800F000FA2A490868B2
:1032D0002B49FDF7A9FC12D2264908682849FDF7B9
:1032E000A3FC0CD225480068264941F82400234855
:1032F0004068254941F82400601C84B200E00024A5
:10330000962C20DB96212048FFF78CFD064696225E
:103310001C491D48FFF7D4FD81461EB91BA0FFF7CD
:10332000D3F803E0314625A0FFF7CEF84846FDF775
:103330005EFC07463A460B4625A0FFF7C5F80BA0F2
:10334000FFF7C2F80024681C85B2142D07D10025B0
:1033500000BF4FF480712248FEF75AF900BFA1E781
:10336000CEC2B6C8A3BA252E3266A1E60D0A000069
:103370002B00002008000020040000200C0000208A
:103380000050C347340000208C020020D0C4C2CAC1
:10339000B2E2C1BFCAA7B0DCA3ACC7EBBDABC6A449
:1033A000B7F4BDF4CCF9B4ABB8D0C6F7A3ACB2A2B5
:1033B000B1A3B3D6BEB2D6B90D0A0000D0C4C2CAFA
:1033C000A3BA256420B4CE2F6D696E0D0A000000EB
:1033D000D1AAD1F5A3BA252E326625250D0A000003
:1033E0000008014000BF054A126802F04002002AAE
:1033F000F9D0C2B2014B1B1D1A6070470038014062
:1034000010B500BF002208211048FEF70BF900BFDD
:1034100000F01EF800BF012204210C48FEF702F95B
:1034200000BF00F015F800BF002204210748FEF796
:10343000F9F800BF00F00CF800BF01220821034892
:10344000FEF7F0F800BF00F003F810BD00080140DF
:1034500010B50220FFF7EEFE10BD000000B585B0EC
:1034600000BF00BF1948806940F004001749886117
:103470000846806900F00400009000BF00BF00BF54
:1034800000BF00BF0846806940F00400886108461C
:10349000806900F00400009000BF00BF00BF04205E
:1034A00001900120029003900320049001A9084894
:1034B000FDF716FF082001901120029001A9044891
:1034C000FDF70EFF00F0B0F805B000BD001002409F
:1034D0000008014010B500BF012208210C48FEF78A
:1034E000A1F800BFFFF7B4FF00BF01220421084884
:1034F000FEF798F800BFFFF7ABFF00BF00220421E2
:103500000348FEF78FF800BFFFF7A2FF10BD0000D1
:103510000008014070B50546002400261CE0600646
:10352000040E00BF012204211048FEF77BF800BF03
:10353000FFF78EFF08210D48FEF762F808B1601C06
:10354000C4B200BF002204210848FEF76BF800BF98
:10355000FFF77EFF701CC6B2082EE0DB15B9FFF73F
:10356000B9FF01E0FFF74CFF204670BD00080140A5
:1035700070B50446002524E000BFE00928B101220F
:1035800008211548FEF74EF804E0002208211248F1
:10359000FEF748F800BFFFF75BFF00BF01220421E0
:1035A0000D48FEF73FF800BFFFF752FF00BF0022B3
:1035B00004210948FEF736F800BF6006040E681CB7
:1035C000C5B2082DD8DB00BF012208210248FEF752
:1035D00029F800BF70BD00000008014010B500BF11
:1035E000012208210F48FEF71DF800BF00BF01228D
:1035F00004210C48FEF716F800BFFFF729FF00BFB3
:10360000002208210748FEF70DF800BFFFF720FF52
:1036100000BF002204210348FEF704F800BFFFF7B3
:1036200017FF10BD0008014010B500BF002208219F
:103630000C48FDF7F7FF00BFFFF70AFF00BF0122AC
:1036400004210848FDF7EEFF00BFFFF701FF00BFB0
:10365000012208210348FDF7E5FF00BFFFF7F8FE50
:1036600010BD00000008014070B50024002500BF17
:10367000012208211448FDF7D5FF00BFFFF7E8FE3F
:1036800000BF012204211048FDF7CCFF00BFFFF767
:10369000DFFE07E0601CC4B2FA2C03DDFFF7C4FFB5
:1036A000012505E008210848FDF7AAFF0028F1D10F
:1036B00000BF00BF002204210348FDF7B3FF00BF95
:1036C000FFF7C6FE284670BD0008014070B50446ED
:1036D0000D4604482A46214603680348FCF720FDAE
:1036E00070BD00002C000020EC05002000B585B066
:1036F00000BF00BF1048806940F004000E49886197
:103700000846806900F00400009000BF00BF00BFC1
:10371000881501900120029003900320049001A9D4
:103720000648FDF7DDFD00BF012211020348FDF749
:1037300079FF00BF05B000BD001002400008014045
:1037400010B5FDF787FF4FF4E01000F0C3F84820F4
:10375000FFF760FD4FF4E13000F0F0F8FFF7C6FF2F
:1037600000F034F8FFF78AFD002010BD08B50948C5
:103770000068094B094A1D2100900948FDF741F9ED
:1037800004480068074B054A1D2100900648FDF7D4
:1037900038F908BD2C000020040600208C390008F0
:1037A000EC05002078060020F805002070B50446DE
:1037B0000D4604482A46214603680348FCF7B0FC3E
:1037C00070BD00002C000020F805002010B50EA0F0
:1037D000FEF77AFE0DA0FEF777FE15A0FEF774FE49
:1037E00018A0FEF771FE1AA0FEF76EFE1CA0FEF7F1
:1037F0006BFE2BA0FEF768FE04A0FEF765FE0BA093
:10380000FEF762FE10BD00000A0000002A2A2A2AE4
:103810002A2A2A2A2A2A2A2A2A2A2A2A2A2A2A2A08
:103820002A2A2A2A2A2A2A2A2A2A2A2A0D0A000089
:103830004865617274526174652053656E736F726E
:103840000D0A000041544B2D4D423032300D0A001C
:1038500041544F4D40414C49454E54454B0D0A0093
:10386000506C6561736520706C61636520796F755C
:10387000722066696E676572206F6E2074686520BD
:1038800073757266616365206F66204D41583330F1
:103890003130322073656E736F720D0A00000000C4
:1038A000C7EBB0D1CAD6D6B8BBF2C6A4B7F4B7C579
:1038B000D6C3D4DA4D41583330313032B4ABB8D0FE
:1038C000C6F7B1EDC3E6B1A3B3D6BEB2D6B90D0A01
:1038D0000000000030B58FB005460124282105A85E
:1038E000FDF7A4F814216846FDF7A0F80120059023
:1038F000000406900020079002200C90C1030D9157
:103900000E9505A8FEF77AF804460CB100BFFEE755
:103910000F20009002200190002002904FF4806060
:1039200003900020049002216846FDF731FF044611
:103930000CB100BFFEE70FB030BD000010B504466B
:1039400009480A4908600846446000218160C16056
:10395000016181610C214161FEF748FB01220449AC
:103960000248FEF7D7FB10BD00380140AC0500202F
:103970002A000020000000000000000001020304F3
:103980000607080900000000010203047B34CABADC
:103990006FEE10BBC55D57BB450C91BB4DEE9BBB9D
:1039A000741C45BBE8AC0F3B52B1423C6113D83CA0
:1039B0008D3E383D2017873D9BAFB13D09EDD53D8C
:1039C000D248EE3DF5DEF63DD248EE3D09EDD53D5F
:1039D0009BAFB13D2017873D8D3E383D6113D83CEC
:1039E00052B1423CE8AC0F3B741C45BB4DEE9BBB57
:1039F000450C91BBC55D57BB6FEE10BB7B34CABA9B
:103A0000203A0008000000203400000020250008B3
:103A1000543A000834000020BC0A00003025000899
:103A20000024F4000000000000000000000000007E
:103A30000000000000000000100000000100000075
:103A40000000000000000000000000000100000075
:043A50000100000071
:04000005080000ED02
:00000001FF
