:020000040800F2
:1000000088050020A1010008172200080F2200081F
:10001000132200083D120008C5240008000000005B
:100020000000000000000000000000004522000861
:1000300041120008000000001922000847220008B1
:10004000B7010008B7010008B7010008B7010008B0
:10005000B7010008B7010008B7010008B7010008A0
:10006000B7010008B7010008B7010008B701000890
:10007000B7010008B7010008B7010008B701000880
:10008000B7010008B7010008B7010008B701000870
:10009000B7010008B7010008B7010008B701000860
:1000A000B7010008B7010008B7010008B701000850
:1000B000B7010008B7010008B7010008B701000840
:1000C000B7010008B7010008B7010008B701000830
:1000D000B7010008A1240008B7010008B701000813
:1000E000B7010008B7010008B701000800F002F8E6
:1000F00000F047F80AA090E8000C82448344AAF17B
:100100000107DA4501D100F03CF8AFF2090EBAE878
:100110000F0013F0010F18BFFB1A43F0010318473B
:100120003032000050320000103A24BF78C878C145
:10013000FAD8520724BF30C830C144BF04680C60ED
:10014000704700000023002400250026103A28BF35
:1001500078C1FBD8520728BF30C148BF0B60704739
:10016000662903F09C80002070471FB500F014FB47
:1001700004000020002102F0D1FDE0601FBD10B599
:1001800010BD00F025FC1146FFF7EFFF02F01AFD4D
:1001900000F043FC03B4FFF7F2FF03BC02F0CBF91D
:1001A00008480047FEE7FEE7FEE7FEE7FEE7FEE75A
:1001B000FEE7FEE7FEE7FEE703480449024A044B78
:1001C00070470000ED00000888010020880500202D
:1001D00088010020704700000FB4044910B503AA3D
:1001E000029800F0C7FA10BC5DF814FB1400002060
:1001F0002DE9F0474FF0000A89460446C0F820A0D8
:100200002046E1688847002876D0252806D0D4E922
:1002100001219047206A401C2062F1E7E1682046F6
:1002200000258847C4F81CA006460027C4F818A07B
:100230002A2E09D0304602F077F938B304EB87084C
:10024000303EC8F8186019E059F8041B204604EB4A
:1002500087029161E1688847012F064618D1E0695D
:10026000002820DA25F020051DE0D8F8180000EB62
:10027000800006EB40003038C8F818002046E168DE
:100280008847064602F050F90028EED1012F0AD027
:100290002E2E08D12046E16888477F1C0646022F93
:1002A00045F02005C4DBA069002803DA404245F090
:1002B0000105A061E80701D025F01005B6B1A6F14F
:1002C0004100192802D8203645F400654A463146D7
:1002D000204625604D46FFF743FF58B1012806D060
:1002E000ED1D25F0070000F1080989E704E005F19C
:1002F000040985E730468AE7206ABDE8F0874FF0B9
:10030000000200B5134694469646203922BFA0E865
:100310000C50A0E80C50B1F12001BFF4F7AF090771
:1003200028BFA0E80C5048BF0CC05DF804EB890062
:1003300028BF40F8042B08BF704748BF20F8022BA5
:1003400011F0804F18BF00F8012B704770477047BD
:100350007047704770472DE9FF4F0C461E464FF01F
:10036000FF378BB0D2E90001DDF860800A908A4641
:10037000C1F30A5505B93D46002108464FF000007B
:10038000BAF1000F00F4400005DA00EB80004FF4F2
:10039000400101EA50004FEA9059B9F1010F00DD28
:1003A000B9460A9850EA4A000ED044F61050A5F219
:1003B000FF3545432F14B8F1000F1ED07542291E9A
:1003C0001EDDC9F100021CE0B8F1010F4FF0000082
:1003D00001D0302103E0F24305E02154401CB0423B
:1003E000FBDB30460022002121540B99C1F8088024
:1003F000C1E900200FB0BDE8F08FBD1B6D1CDEE72A
:100400004A4600DA694206A800F068FA06AB93E8AB
:10041000070003AB83E8070050460A9900F046FB4B
:100420008DE80700A0F500501F3800900398002DBC
:100430000ADD42F21F014A460844002303A9039043
:10044000684600F0AFFD09E0A0F500504A461F38AD
:10045000002303A90390684600F0B9FD8DE807006A
:100460000004000C03D04FF0FF30410800E01046BC
:10047000B8F1000F03D00022009215461EE0751E51
:1004800005D400F08DF9303262556D1EF9D5B346B2
:100490000122084302D000227F1C04E0207830288B
:1004A00001D100227F1E002A099784D01DE0112D62
:1004B00007DA00F075F9303262556D1C50EA01021E
:1004C000F5D1084302D00098C8B10EE00021681EA3
:1004D00005E0235C625C63542254401E491C814247
:1004E000F7DBAB46A81B401E0990002004F80B0068
:1004F0000B98099AC0F80880C0E9002B7AE711260A
:100500004FF0000857E72DE9F04F88460446D21D0A
:1005100022F0070191B0D1E90001CDE90A0101F013
:10052000D3FF02460B98C00F01D02D2007E02068B2
:10053000810701D52B2002E0202101EAC000032A17
:10054000099001D0072A05DB03464146204600F00A
:1005500085F90BE12078800601D5E06900E00620EE
:10056000B8F1650F814606D0B8F1660F18D0B8F122
:10057000670F70D131E00020B9F1110F009001DB5D
:10058000112301E009F101030AAA01A90CA8FFF750
:10059000E2FEDDE90C70002609F10105834647E023
:1005A00001204B4600904FF000470AAA01A90CA871
:1005B000FFF7D1FEDDE90DB00C995D46002610B9BC
:1005C00009F101000D18B9EB050003D4C0F1FF36A5
:1005D00009F10105A5EB09002BE0B9F1010F01DAE2
:1005E0004FF001090020B9F1110F0090484601DDDC
:1005F000112300E003460AAA01A90CA8FFF7ABFEED
:10060000DDE90C704D4600268346207800070AD4A9
:10061000AB4500DA5D4601A8012D04DD411911F852
:10062000011C302907D04F4502DA17F1040F04DA14
:10063000012082460FE06D1EEEE7002F02DCED1B6D
:100640003E4403E0781CA84200DD7D1CB81B00F18D
:10065000010A4FF000472078000703D4AA4501DBC8
:100660004FF0FF3A0021B7F1004F0DF143088DF82C
:10067000431024D002202B23002F01DA7F422D23A8
:100680000A21021EA0F1010000DC5FB197FBF1FC22
:1006900097FBF1F201FB1C7C17460CF1300C08F8BB
:1006A00001CDEEE7A8F1010003702188090501D50D
:1006B000452100E06521A0F1010800F8011C09981E
:1006C0000FA9A1EB0807FF1D00B10120411901EBA3
:1006D000EA70A1693844081A401EA0612078C0065B
:1006E00002D42046AFF30080099828B1D4E9012153
:1006F0009047206A401C20622078C00622D5204600
:10070000AFF300801EE0002E04DBB34502DD01A83C
:10071000805D00E03020D4E901219047206A401C30
:100720002062761CAAF101005FEA000A0AD100F0FB
:1007300033F8C0680168405CD4E901219047206A21
:10074000401C2062281EA5F10105DCDC07E0D4E98D
:10075000012118F8010B9047206A401C2062381EC6
:10076000A7F10107F3DC2046AFF30080032011B0AE
:1007700041E60000074B70B50D467B4400F05BF886
:100780000446284600F01CF910B14FF0FF3070BD50
:10079000204670BD872000000048704744010020BB
:1007A00030B5B0F10A024FEA900E71F100034EEA43
:1007B000817EB0EB0E0061EB91014FEA101E4EEA14
:1007C000017E10EB0E0041EB11114FEA102E4EEAA4
:1007D000016E10EB0E0041EB11214FEA104E4EEA74
:1007E000014E10EB0E0041EB1141401841F10001A8
:1007F0004FEAD00040EA41704FEAD10110EB80058A
:100800004FEA810444EA907444EB01046D1944EB0F
:100810000404521BA3414FF0000348BF0A3200D525
:1008200030BD401C41F1000130BD000001694A1C8F
:1008300002610878704700B58FB0CDE90131002121
:10084000059105497944CDE9031011466846FFF743
:10085000CFFC0FB000BD0000E5FFFFFF2DE9F04128
:100860001F46044603260168072A01F4006004DBE2
:1008700008B116A505E016A503E008B115A500E02E
:1008800015A521F010002060A069C01EA0610FB165
:10089000401EA0612046AFF300804FB1D4E9012192
:1008A00038469047206A401C2062C01C206206E047
:1008B000206AFAE7D4E9012115F8010B9047761E6A
:1008C000F8D22046AFF30080BDE8F0814E414E00E3
:1008D0006E616E00494E4600696E66002DE9F04774
:1008E000814616468AB0354878440DC88DE80D001B
:1008F00032487844801C03AC0DC884E80D0041F6F2
:100900009B300844372190FBF1F290FBF1F5A5F103
:10091000800501FB12041B3C02D56442012000E06B
:100920000020DFF898A080460027FA44AAF1BE0A0A
:100930000EE0E0070AD03246684607EB4701012384
:100940000AEB810100F043FB8DE8070064107F1C77
:10095000002CEED1194F7F44AE3F19E0E80715D0C7
:1009600007EB04100DF1180A90E80E008AE80E005B
:10097000C068F04201D1981908903246012306A9B7
:1009800003A800F024FB03AB83E807006D10641C90
:10099000002DE3D14FF0010332466946B8F1000F54
:1009A00003A802D000F0FEFA01E000F010FBC9E954
:1009B0000001C9F808200AB0BDE8F0874C2A000001
:1009C000007B00F080007047004870472401002041
:1009D0007546FFF7F9FFAE4605006946534620F01D
:1009E0000700854618B020B5FFF7E6FBBDE82040BC
:1009F0004FF000064FF000074FF000084FF0000BDB
:100A000021F00701AC46ACE8C009ACE8C009ACE88D
:100A1000C009ACE8C0098D46704710B50446AFF375
:100A200000802046BDE81040FFF7B4BB4FF0013C0A
:100A300050F8042B51F8043B9A4221D1A2EB0C034D
:100A4000934313EACC1317D150F8042B51F8043B0D
:100A50009A4215D1A2EB0C03934313EACC130BD1AA
:100A600050F8042B51F8043B9A4209D1A2EB0C0335
:100A7000934313EACC13DBD04FF00000704700BF64
:100A8000D01A01BAB1FA81F101F0180122FA01F08D
:100A9000CB40C1F12001DBB2C0B2C01A2CFA01F385
:100AA000D11A914311EAC311E6D170475FEA400CB5
:100AB00008BF91F0000F4FEA8C234FEAC12243EAAE
:100AC00051514FEA1C5018BF00F5F0404FEA30007A
:100AD00018BF41F000415FEA6C5C00F02980BCF176
:100AE000FF3F08BF40F080407047130C06BF120460
:100AF0004FF0100C4FF0000C130E04BF12020CF15B
:100B0000080C130F04BF12010CF1040C930F04BF67
:100B100092000CF1020CD30F04BF52000CF1010C37
:100B200011464FF00002A0F11F00A0EB0C0070472F
:100B300011F0004F08BF704731F000413FF4D5AFCE
:100B40000B0C06BF09044FF0100C4FF0000C0B0EFD
:100B500004BF09020CF1080C0B0F04BF09010CF1D2
:100B6000040C8B0F04BF89000CF1020CCB0F04BFE7
:100B700049000CF1010CCCF12003A0EB0C0022FA8F
:100B800003F302FA0CF241EA030100F1010070479D
:100B900020F07F4C80EA030023F07F47ACEB070393
:100BA00003F57C5300F0004003F1FF032DE9804979
:100BB0004FEA154B09B44FEA144325EA0B4E24EAD9
:100BC00003480FF2042606EB132749083E785FEA34
:100BD000320203FB0667C7F5000707FB06F64FEA7C
:100BE00054374FEAD64606F1020607FB066CCCF1F5
:100BF000005C4FEA1C472CEA074C07FB06F40CFB91
:100C000006F504EB15464FEA961634BF00204FF068
:100C100000404FEAD13706FB07FC4FEA1C4C0CFBA7
:100C20000BF7D21B03FB0CF761EB07010CFB0EF774
:100C3000B0EB074072EB17420CFB08F734BFA2EB96
:100C40000742B2EB074261EB17414FEA0C444FEA0F
:100C5000910706FB07FC4FEA1C4C0CFB0BF7B0EBB3
:100C6000C74072EB573203FB0CF734BFA2EBC7420D
:100C7000B2EBC74261EB57310CFB0EF7B0EBC7008C
:100C800072EB57720CFB08F734BFA2EBC702B2EB52
:100C9000C70261EB5771039F4FEA816141EA9211EC
:100CA00004EBCC044FEAD1374FEA826206FB07FC23
:100CB00042EA90124FEA80604FEA1C4C0CFB0BF7A3
:100CC000D21B03FB0CF761EB07010CFB0EF7B0EB3B
:100CD000074072EB17420CFB08F734BFA2EB074248
:100CE000B2EB074261EB17414FEA8C554FEA91078F
:100CF00004EB9C2406FB07FC4FEA1C4C0CFB0BF797
:100D0000B0EBC74072EB573203FB0CF734BFA2EBDA
:100D1000C742B2EBC74261EB57310CFB0EF7B0EBA9
:100D2000C70072EB57720CFB08F734BFA2EBC70287
:100D3000B2EBC70261EB577115EB4C254FEA8161AD
:100D400041EA92114FEA82624FEAD13742EA9012A9
:100D500006FB07FC44F100044FEA80604FEA1C4C9C
:100D60000CFB0BF7D21B03FB0CF761EB07010CFB31
:100D70000EF7B0EB074072EB17420CFB08F734BFDD
:100D8000A2EB0742B2EB074261EB174115EB1C15D2
:100D90004FEA813141EA92414FEA823242EA90427F
:100DA0004FEA80304FEA0C7644F1000448EA0343EE
:100DB0004EEA0B484FF0000EB2EB080C71EB030744
:100DC00024BF624639464EEB0E0E4FF0000B001862
:100DD000524149414BEB0B0BB2EB080C71EB030793
:100DE0007BF1000B24BF624639464EEB0E0E4FF0EE
:100DF000000B0018524149414BEB0B0BB2EB080CB6
:100E000071EB03077BF1000B24BF624639464EEBC2
:100E10000E0E51EA020718BF46F0010616EB0E76D9
:100E200055F1000254F1000103D5BDE88901BDE888
:100E30000088BDE88901BDE80048B619524141EB80
:100E40000101A3F10103704780807F7E7D7C7B7A66
:100E50007978777676757473727171706F6E6E6D66
:100E60006C6C6B6A6A69686867666665646463630C
:100E700062616160605F5F5E5E5D5D5C5C5B5B5A92
:100E80005A595958585757565655555554545353FF
:100E900052525251515050504F4F4F4E4E4D4D4D5A
:100EA0004C4C4C4B4B4B4A4A4A49494948484847A5
:100EB00047474746464645454544444444434343E3
:100EC0004342424242414141002B9C4630D477008C
:100ED0002BD01CB54FEA370703B44FF010004FF08A
:100EE0001001BAF1000F06D0BCF1000FDCBF40F0DA
:100EF000080040F008014FF000000FBCBDE81040B2
:100F00000BF1010BBBF1010F08BF5FEA170722BF0E
:100F100012F1010211F101014FF0004143F1000310
:100F200000F0004043EA00007047F9D35708D0E7CB
:100F300046EA064613F1400F4FEA16461FDD13F14D
:100F4000200FDFBF16430A46002120335B42BED08C
:100F5000C3F1200746EA064602FA07F74FEA1646AB
:100F600046EA0706C3F1200722FA03F201FA07F75F
:100F700021FA03F14FF0000342EA0702A7E746EA2D
:100F8000020646EA06464FEA164646EA0106BCBF96
:100F900046EA0646360C4FF000034FF000024FF0D1
:100FA000000194E72DE9804C9A46934670B491E88D
:100FB000380007C831EA400C48BF34EA430C03D577
:100FC000FFF7E6FDFFF780FFF0BCBDE8008C2DE9E0
:100FD000804C9A46934670B491E8380007C810F0E8
:100FE000804F08BF13F0804F03D100F005F8FFF7E2
:100FF0006BFFF0BCBDE8008C20F07F4780EA030067
:1010000023F07F4C07EB0C03A3F57C5300F000406A
:10101000A3F1FE0392F0000F00F0B38095F0000FF3
:1010200000F077802DE901494FEA11404FEA14465C
:1010300021EA004800FB06FC24EA064708FB06F606
:1010400007FB08F800FB07F718EB06484CEB164CBB
:101050004FEA124B18EB07484FEA15464CEB174086
:1010600022EA0B4E0BFB06FC25EA06470EFB06F6B2
:1010700007FB0EFE0BFB07F71EEB064E4CEB164C68
:101080004FF000061EEB074E4CEB174B18EB0B080E
:1010900040F1000018EB0E0B58EB000840F1000087
:1010A0008F1A4FF000013CBFC943661B14BFB5EB5C
:1010B000040C00213CBFC943F61B4FEA17444EEA1B
:1010C0008E0E27EA04454FEA1C4704FB07622CEA10
:1010D000074C05FB07F70CFB05F604FB0CFC16EBB5
:1010E000074642EB174216EB0C4642EB1C421BEB49
:1010F000060658EB0202414146EA9E0601D5BDE8CC
:101100000189B619524141EB0101A3F10103BDE888
:1011100001894FEA14454FEA114724EA054621EABE
:10112000074C05FB07F406FB07F70CFB06F105FB74
:101130000CFC11EB074144EB17444FEA124711EB4B
:101140000C4144EB1C4422EA074C05FB07F206FB6A
:1011500007F70CFB06F605FB0CFC16EB074642EB0B
:10116000174216EB0C4642EB1C456A1854F100017D
:1011700048BF7047B619524141EB0101A3F1010389
:10118000704795F0000F37D04FEA11424FEA1447ED
:1011900021EA024624EA074C02FB07F106FB07F7A7
:1011A0000CFB06F402FB0CFC14EB074441EB17416B
:1011B0004FEA154714EB0C4441EB1C4125EA074C60
:1011C00002FB07F506FB07F70CFB06F602FB0CFC1F
:1011D00016EB074645EB174516EB0C4645EB1C4254
:1011E000121951F1000148BF7047B619524141EB45
:1011F0000101A3F1010370474FEA14454FEA11477B
:1012000024EA054621EA074C05FB07F106FB07F730
:101210000CFB06F24FF0000605FB0CFC12EB07423C
:1012200041EB174112EB0C4251EB1C4148BF704798
:10123000921841EB0101A3F10103704700BFFEE7E3
:101240007047000070B50446002594F8210002287C
:1012500003D00420A063012548E02068006820F046
:101260000E00216808602068006820F001002168F5
:1012700008601F492068884201D1012026E01C49EE
:1012800014312068884201D110201FE0184928310C
:101290002068884201D1801518E015493C3120684A
:1012A000884201D1801411E01149503120688842F0
:1012B00002D14FF4803009E00D4964312068884242
:1012C00002D14FF4801001E04FF0807008490839D6
:1012D0004860012084F8210000BF002084F820002D
:1012E00000BF606B10B12046616B8847284670BD17
:1012F000080002402DE9F8470346002294466EE1BB
:101300004FF0010808FA02F4D1F8008008EA04005E
:10131000A0427DD1DFF8DCA2D1F80480A8EB0A0955
:10132000D0453AD014DCB8F1030F50D009DCB8F145
:10133000000F31D0B8F1010F1CD0B8F1020F49D124
:1013400020E0B8F1110F18D0B8F1120F42D11EE011
:10135000B9F5881F25D006DCB9F5803F20D0B9F556
:10136000801F37D11AE0B9F5001F18D0B9F5041F56
:1013700030D117E0D1F80CC02DE0D1F80C8008F185
:10138000040C28E0D1F80C8008F1080C23E0D1F817
:101390000C8008F10C0C1EE000BF00BF00BF00BFB6
:1013A00000BF00BFD1F80880B8F1000F02D14FF0A4
:1013B000040C0BE0D1F80880B8F1010F03D14FF015
:1013C000080C1C6102E04FF0080C5C6103E04FF078
:1013D000000C00E000BF00BFFF2801D8984601E0E4
:1013E00003F104084646FF2802D84FEA820803E0CA
:1013F000A2F108084FEA88084746D6F800804FF067
:101400000F0909FA07F928EA09080CFA07F900E0B8
:1014100088E048EA0908C6F80080D1F8048008F09E
:101420008058B8F1805F7DD100BFDFF8CC81D8F85B
:10143000188048F00108DFF8C091C9F81880C84644
:10144000D8F8188008F00108CDF8008000BF00BF70
:101450004FEAB9384FEA920958F829504FEA827892
:101460004FEA18794FF00F0808FA09F825EA08053D
:10147000DFF88881434502D14FF0000816E0DFF81D
:101480008081434502D14FF001080FE0DFF87481FD
:10149000434502D14FF0020808E0DFF86C81434574
:1014A00002D14FF0030801E04FF004084FEA8279BF
:1014B0004FEA197908FA09F848EA0505DFF84C817E
:1014C0004FEA920948F82950D1F8048008F480388E
:1014D000B8F5803F0AD1DFF83881D8F8008048EAB3
:1014E0000008DFF82C91C9F8008009E0DFF82081BE
:1014F000D8F8008028EA0008DFF81491C9F80080C5
:10150000D1F8048008F40038B8F5003F10D1DFF8B6
:10151000008108F10408D8F8008048EA0008DFF8E4
:10152000F09000E05AE009F10409C9F800800DE0EC
:10153000DFF8DC8008F10408D8F8008028EA000809
:10154000DFF8CC9009F10409C9F80080D1F80480D3
:1015500008F48018B8F5801F0ED1DFF8B48008F1C8
:101560000808D8F8008048EA0008DFF8A49009F1DC
:101570000809C9F800800DE0DFF8948008F1080838
:10158000D8F8008028EA0008DFF8849009F10809FB
:10159000C9F80080D1F8048008F40018B8F5001FDD
:1015A0000ED1DFF86C8008F10C08D8F8008048EA0A
:1015B0000008DFF85C9009F10C09C9F800800DE023
:1015C000DFF84C8008F10C08D8F8008028EA000801
:1015D000DFF83C9009F10C09C9F80080521CD1F8E1
:1015E000008028FA02F8B8F1000F7FF489AEBDE858
:1015F000F8870000000011100010024000080140B0
:10160000000C01400010014000140140080001409E
:1016100000040140024693680B400BB1012000E03A
:10162000002070470AB1016101E00B0403617047BB
:10163000014800687047000004000020034800686B
:1016400003490978084401490860704704000020F4
:101650000C00002010B50848006840F01000064952
:101660000860052000F080F80F2000F007F800F077
:101670002BF8002010BD00000020024070B5044689
:101680000E4800784FF47A71B1FBF0F00C4909680C
:10169000B1FBF0F5284600F0E3FB08B1012070BD76
:1016A000102C07D200222146501E00F01EF80548DB
:1016B000046001E00120F2E70020F0E70C000020C8
:1016C000000000200800002070470146084600285E
:1016D00009DB00F01F0301229A4043099B0003F13C
:1016E000E023C3F8002100BF70472DE9F05F80467A
:1016F0000D461646002700F0FBFE074639462A46EF
:10170000334601F00700C0F1070ABAF1040F02D90D
:101710004FF0040A01E0C0F1070AD14600F1040AC3
:10172000BAF1070F02D24FF0000A01E0A0F1030A5C
:10173000D4464FF0010A0AFA09FAAAF1010A0AEAA4
:10174000020A0AFA0CFA4FF0010B0BFA0CFBABF190
:10175000010B0BEA030B4AEA0B042146404600F05A
:10176000CFFEBDE8F09F000000BF00F00702064B6F
:1017700019684FF6FF031940044B0B4343EA02215B
:10178000014B196000BF70470CED00E00000FA0546
:1017900070B504460D460CB9012070BD5A4800686A
:1017A00000F00700A8420ED25748006820F007005A
:1017B0002843554908600846006800F00700A84221
:1017C00001D00120E9E7207800F0020002281DD1B5
:1017D000207800F00400042805D14C48406840F40B
:1017E000E0604A494860207800F00800082805D1E8
:1017F0004648406840F46050444948604348406867
:1018000020F0F000A168084340494860207800F0CB
:10181000010078B36068012806D13C48006800F4F4
:10182000003090B90120B8E76068022806D1374837
:10183000006800F0007040B90120AEE7334800684E
:1018400000F0020008B90120A7E73048406820F006
:101850000300616808432D494860FFF7E9FE06462A
:1018600009E0FFF7E5FE801B41F28831884202D98A
:10187000032092E707E02548406800F00C0061680B
:10188000B0EB810FEDD12048006800F00700A842BE
:101890000ED91D48006820F0070028431A49086047
:1018A0000846006800F00700A84201D0012074E754
:1018B000207800F00400042807D11448406820F480
:1018C000E060E168084311494860207800F00800B2
:1018D000082808D10D48406820F46050216940EA8A
:1018E000C1000A49486000F03FF808494968C1F35F
:1018F0000311074A515CC840064908600648006861
:10190000FFF7BCFE002048E7002002400010024024
:10191000A2320008000000200800002001480068F2
:10192000704700000000002000B5FFF7F7FF0449F2
:101930004968C1F30221034A515CC84000BD000060
:1019400000100240B232000800B5FFF7E7FF04497B
:101950004968C1F3C221034A515CC84000BD000080
:1019600000100240B2320008F0B585B00FF26C0CE6
:101970009CE8E01001A8A0E8E0101CA52D680095E7
:1019800000210022002300240020194D696801F085
:101990000C05F5B1042D02D0082D19D101E0154830
:1019A00019E001ADC1F38346AC5D01F4803555B15A
:1019B0000F4D6D68C5F340451DF805200D4D65437D
:1019C000B5FBF2F302E00C4D04FB05F3184602E010
:1019D00000BF084800BF00BF05B0F0BD020304050A
:1019E000060708090A0B0C0D0E0F1010010200006B
:1019F0000010024000127A0000093D00F8B50446CC
:101A00000CB90120F8BD207800F00100002878D042
:101A1000F848406800F00C0004280CD0F5484068F5
:101A200000F00C00082811D1F248406800F4803022
:101A3000B0F5803F0AD1EF48006800F4003000287C
:101A40005FD0606800285CD10120DBE700BF6068E0
:101A5000B0F5803F06D1E748006840F48030E549A2
:101A6000086028E0606858B9E248006820F48030D7
:101A7000E04908600846006820F4802008601AE009
:101A80006068B0F5A02F0BD1DA48006840F48020E0
:101A9000D84908600846006840F4803008600AE0D1
:101AA000D448006820F48030D249086008460068B5
:101AB00020F48020086000BF606888B1FFF7B8FD9F
:101AC000054606E0FFF7B4FD401B642801D903205A
:101AD00098E7C848006800F400300028F2D010E011
:101AE000FFF7A6FD054606E0FFF7A2FD401B6428B0
:101AF00001D9032086E7BF48006800F400300028C1
:101B0000F2D1207800F00200022857D1B94840688D
:101B100000F00C0050B1B748406800F00C000828F5
:101B200018D1B448406800F4803098B9B1480068D2
:101B300000F0020020B12069012801D0012061E7F6
:101B4000AC48006820F0F800616940EAC100A9498A
:101B5000086033E02069E8B10120A7490860FFF779
:101B600067FD054606E0FFF763FD401B022801D92B
:101B7000032047E79F48006800F002000028F2D0E9
:101B80009C48006820F0F800616940EAC10099496A
:101B9000086013E0002098490860FFF749FD0546FA
:101BA00006E0FFF745FD401B022801D9032029E785
:101BB0009048006800F002000028F2D1207800F080
:101BC000080008282DD1A069B8B101208B49086010
:101BD000FFF72EFD054606E0FFF72AFD401B022811
:101BE00001D903200EE78348406A00F00200002874
:101BF000F2D0012000F012FB13E000207F490860C2
:101C0000FFF716FD054606E0FFF712FD401B022810
:101C100001D90320F6E67748406A00F00200002868
:101C2000F2D1207800F00400042873D10027714815
:101C3000C06900F0805070B900BF6E48C06940F0C4
:101C400080506C49C8610846C06900F0805000901F
:101C500000BF00BF01276A48006800F48070B0B977
:101C60006748006840F4807065490860FFF7E0FC51
:101C7000054606E0FFF7DCFC401B642801D9032081
:101C8000C0E65F48006800F480700028F2D000BF12
:101C9000E068012806D15748006A40F00100554924
:101CA000086227E0E06858B95248006A20F0010055
:101CB000504908620846006A20F00400086219E0F2
:101CC000E06805280BD14B48006A40F00400494900
:101CD00008620846006A40F0010008620AE04548D0
:101CE000006A20F00100434908620846006A20F0BB
:101CF0000400086200BFE068A0B1FFF799FC054648
:101D000009E0FFF795FC401B41F28831884202D977
:101D1000032077E622E03748006A00F0020000283E
:101D2000EFD012E0FFF784FC054608E0FFF780FCE7
:101D3000401B41F28831884201D9032062E62D48D8
:101D4000006A00F002000028F0D1012F05D12948D7
:101D5000C06920F080502749C86100BFE069C8B35E
:101D60002448406800F00C00082860D0E069022890
:101D700048D1002020490866FFF75AFC054606E0D6
:101D8000FFF756FC401B022801D903203AE6194808
:101D9000006800F000700028F2D1206AB0F5803FA2
:101DA00007D11448406820F40030A1680843114965
:101DB0004860D4E9080108430E49496821F47411C8
:101DC00008430C49486001200B490866FFF730FCC6
:101DD000054607E03DE0FFF72BFC401B022801D938
:101DE00003200FE60348006800F000700028F2D0DE
:101DF0002FE00000001002400000424280044242F6
:101E000000700040002014490866FFF711FC0546E9
:101E100006E0FFF70DFC401B022801D90320F1E585
:101E20000E48006800F000700028F2D111E0E0696F
:101E3000012800D1E6E50948466806F48031206AA9
:101E4000814204D106F47011606A814201D0012000
:101E5000D8E50020D6E50000000042420010024014
:101E600070B504462546681EB0F1807F01D301207D
:101E70000FE0681E4FF0E02148610F214FF0FF3066
:101E800000F03EFB00204FF0E02188610720086150
:101E9000002070BD704700002DE9F047044620681F
:101EA00005682068C668206847694FF00008C14689
:101EB00005F00F08B8F1000F0AD105F0200038B185
:101EC00006F0200020B1204600F0EBF9BDE8F087D5
:101ED000B8F1000F71D007F0010018B906F4907046
:101EE00000286AD005F0010030B106F4807018B106
:101EF000E06B40F00100E06305F0040030B107F052
:101F0000010018B1E06B40F00200E06305F0020050
:101F100030B107F0010018B1E06B40F00400E0635D
:101F200005F0080048B106F0200010B907F00100E4
:101F300018B1E06B40F00800E063E06B68B305F0B7
:101F4000200028B106F0200010B1204600F0A9F9C9
:101F500020684069C0F38019E06B00F0080010B9F8
:101F6000B9F1000F22D0204600F07BF920684069CB
:101F700000F04000B0B12068406920F040002168C6
:101F80004861606B50B11848616B4863606BFFF744
:101F900059F910B1606B416B88470CE02046FFF7A0
:101FA00079FF08E02046FFF775FF04E02046FFF7C1
:101FB00071FF0020E06389E7FFE705F0800030B1A2
:101FC00006F0800018B1204600F03AFA7EE705F0EE
:101FD000400030B106F0400018B1204600F051F941
:101FE00074E700BF72E700004F22000810B50446F6
:101FF0000CB9012010BDA06900B100E000BF94F849
:10200000390028B9002084F83800204600F028F86C
:10201000242084F839002068C06820F4005021682A
:10202000C860204600F08EF92068006920F49040D6
:10203000216808612068406920F02A002168486111
:102040002068C06840F400502168C8600020E06348
:10205000202084F8390084F83A000020CAE7000004
:1020600010B586B004462849206888424AD100BF8E
:1020700000BF2648806940F0040024498861084672
:10208000806900F00400019000BF00BF00BF00BFE6
:1020900000BF0846806940F00400886108468069F6
:1020A00000F00400019000BF00BF00BF00BF00BFF0
:1020B0000846806940F4804088610846806900F4E1
:1020C0008040019000BF00BF00BF48150290022071
:1020D0000390012004900320059002A90C48FFF70B
:1020E00009F94FF4806002900020039002A908488B
:1020F000FFF700F92520FFF7E8FA03221146252013
:10210000FFF7F3FA06B010BD00380140001002409E
:102110000008014010B5034693F83A0020282FD15B
:1021200001B10AB9012010BD00BF93F838000128A1
:1021300001D10220F7E7012083F8380000BF99623F
:102140009A85DA850020D863222083F83A0000BF00
:10215000002083F8380000BF1868C06840F4807021
:102160001C68E0601868406940F001001C6860610C
:102170001868C06840F020001C68E0600020D2E7CA
:102180000220D0E71D4A0168914236D11C490988D6
:1021900001F4004189BB1A49098801F4804171B1F9
:1021A000184909780A2903D00021154A118024E032
:1021B0001349098841F40041114A11801DE0114979
:1021C00009780D2906D10E49098841F480410C4A4D
:1021D000118012E00B490978094A1288C2F30D02F6
:1021E000094B995406490988491C054A1180114632
:1021F0000988C72901DD002111807047003801409E
:10220000180000201A0000201C000020704700BFAA
:10221000FEE700BFFEE770477047000008B50849B9
:102220000968C9084FF47A72B1FBF2F14143009199
:1022300000BF00BF00994A1E00920029F9D108BDD5
:1022400000000020704710B5FFF7F8F910BD70B519
:1022500005466C6A0020E085E0842046FFF71AFE00
:1022600070BD0168C96821F490710268D16001688D
:10227000496921F0010102685161202180F83A107A
:10228000704710B504462068C06820F040002168FF
:10229000C860202084F839002046FFF7B7FF0020EF
:1022A00010BD70B5044694F83A00222847D1A068C2
:1022B000B0F5805F0CD1206950B90025A66A20686E
:1022C0004068C0F308003080A06A801CA06215E05E
:1022D000A56A0026A068B0F5805F03D0A06828B981
:1022E000206918B920684068287004E020684068B8
:1022F00000F07F002870A06A401CA062E08D401EA4
:1023000080B2E085C8B92068C06820F0200021684C
:10231000C8602068C06820F480702168C8602068A8
:10232000406920F0010021684861202084F83A00CB
:102330002046FFF727FF002070BD0020FCE70220A9
:10234000FAE7000070B504462168096921F440519C
:10235000E2681143226811612269A1681143626930
:1023600041EA02052168C96841F20C6291432943A0
:102370002268D1602168496921F44071A269114342
:10238000226851612D4A2168914202D1FFF7DCFA9F
:1023900001E0FFF7C9FA00EBC00101EB0011626830
:1023A0009200B1FBF2F100EBC00202EB0012636895
:1023B0009B00B2FBF3F26423B2FBF3F202EBC20325
:1023C00003EB0212A1EB8201322202EB0111642223
:1023D000B1FBF2F101F0F00100EBC00202EB0012E0
:1023E00063689B00B2FBF3F26423B2FBF3F201EBF0
:1023F000021200EBC00101EB001163689B00B1FB0E
:10240000F3F100EBC00303EB00136668B600B3FB07
:10241000F6F36426B3FBF6F303EBC30606EB0313F4
:10242000A1EB8301322303EB01116423B1FBF3F130
:1024300001F00F0111442268916070BD0038014025
:10244000014691F83900212828D18868B0F5805FCD
:102450000BD1086948B90A6A1088C0F308000B68F4
:102460005860086A801C086205E00B6A581C086204
:1024700018780B685860C88C401E80B2C88458B960
:102480000868C06820F080000B68D8600868C068E1
:1024900040F040000B68D860002070470220FCE745
:1024A00010B50648FFF7F8FC00BF012204490348B5
:1024B000FFF730FE0028F8D110BD0000E400002036
:1024C0001A00002000BFFEE7490050EAC12018BFF3
:1024D00004204A0D18BF40F0010040F2FF72B2EB39
:1024E000515F08BF40F00200012808BF0520704777
:1024F00002480068C0F30220704700000CED00E0C5
:1025000010B5002804DB0A07130E054A135406E031
:102510000A07140E034A00F00F031B1FD45410BD0A
:1025200000E400E018ED00E030380A2801D2012074
:1025300070470020704700BF704710B500F0ABF83F
:1025400000F00800082801D1002010BD0120FCE7A0
:1025500008B50AA00068009000F090F9282000F06B
:10256000DBF802226946BE2000F09DF84FF4FA70B5
:1025700000F0D2F8FFF7E1FF08BD000008000000FE
:102580002DE9FF5F06460F46002400252CA00068B9
:10259000009002226946AC2000F085F8502000F03F
:1025A000BBF8072101A800F053F89DF8040000F0E3
:1025B0008000002842D100BF9DF80500204304029E
:1025C0009DF80600204304029DF8070004432409F7
:1025D000204600F00FFD82461A4900F01FFD81469B
:1025E0004FF0894100F044FC80464FF0894100F0F3
:1025F0003FFC386000BF9DF80700284305029DF8A6
:102600000800284305029DF809000543C5F313059A
:10261000284600F0EFFC83460B4900F0FFFC8246A1
:102620004FF0894100F024FC81464FF0894100F0D1
:102630001FFC8046054900F0BDFD3060BDE8FF9FEE
:10264000330000000000C842000048430000484238
:1026500070B505460C4600F0D1F9712000F098F9EC
:1026600000F012FA012803D100F0EEF9012070BD4C
:102670000BE0012C01DD012100E00021084600F003
:1026800059F92870601EC4B26D1C002CF1D100F005
:10269000DBF90020EBE708B501216846FFF7D8FF1A
:1026A0009DF8000008BD2DE9F04107460D4616468D
:1026B00000F0A4F9702000F06BF900F0E5F90128B2
:1026C00004D100F0C1F90120BDE8F081384600F0E6
:1026D0005FF900F0D9F9012803D100F0B5F9012024
:1026E000F2E700240CE0285D00F052F900F0CCF98C
:1026F000012803D100F0A8F90120E5E7601C84B2AD
:10270000B442F0DB00F0A0F90020DDE701490860E9
:10271000704700001000002010B504464FF47A7195
:1027200004FB01F000F002F810BD000070B5034694
:1027300000224FF0E02675690D4E366803FB06F463
:102740004FF0E026B16910E04FF0E026B069884212
:102750000BD0884202D20E1A324402E02E1A0E44E6
:1027600032440146A24200D300E0EDE700BF70BD55
:10277000100000201CB506E014A0FDF72DFD4FF45D
:102780007A70FFF7C9FFFFF7E3FE0028F4D11CE0E1
:10279000694601A8FFF7F4FE019800F0DBFA044651
:1027A00022460B460FA0FDF717FD009800F0D2FA65
:1027B000044622460B460FA0FDF70EFD0CA0FDF7C8
:1027C0000BFD4FF47A70FFF7A7FFE1E74154483261
:1027D00030B4ABB8D0C6F7B3F5CABCBBAFCAA7B06C
:1027E000DC0D0A00CEC2B6C83A20252E3266A1E61C
:1027F0000D0A0000CAAAB6C83A20252E3266252541
:102800000D0A000000BF054A126802F04002002ACB
:10281000F9D0C2B2014B1B1D1A607047003801404D
:1028200010B500BF002208211048FEF7FBFE00BFD4
:1028300000F01EF800BF012204210C48FEF7F2FE52
:1028400000BF00F015F800BF002204210748FEF782
:10285000E9FE00BF00F00CF800BF01220821034888
:10286000FEF7E0FE00BF00F003F810BD00080140D5
:1028700010B50220FFF75AFF10BD000000B585B06B
:1028800000BF00BF1948806940F004001749886103
:102890000846806900F00400009000BF00BF00BF40
:1028A00000BF00BF0846806940F004008861084608
:1028B000806900F00400009000BF00BF00BF04204A
:1028C00001900120029003900320049001A9084880
:1028D000FEF710FD082001901120029001A9044884
:1028E000FEF708FD00F0B0F805B000BD0010024092
:1028F0000008014010B500BF012208210C48FEF776
:1029000091FE00BFFFF7B4FF00BF01220421084879
:10291000FEF788FE00BFFFF7ABFF00BF00220421D7
:102920000348FEF77FFE00BFFFF7A2FF10BD0000C7
:102930000008014070B50546002400261CE0600632
:10294000040E00BF012204211048FEF76BFE00BFF9
:10295000FFF78EFF08210D48FEF75CFE08B1601CF2
:10296000C4B200BF002204210848FEF75BFE00BF8E
:10297000FFF77EFF701CC6B2082EE0DB15B9FFF72B
:10298000B9FF01E0FFF74CFF204670BD0008014091
:1029900070B50446002524E000BFE00928B10122FB
:1029A00008211548FEF73EFE04E0002208211248E7
:1029B000FEF738FE00BFFFF75BFF00BF01220421D6
:1029C0000D48FEF72FFE00BFFFF752FF00BF0022A9
:1029D00004210948FEF726FE00BF6006040E681CAD
:1029E000C5B2082DD8DB00BF012208210248FEF73E
:1029F00019FE00BF70BD00000008014010B500BF07
:102A0000012208210F48FEF70DFE00BF00BF012282
:102A100004210C48FEF706FE00BFFFF729FF00BFA8
:102A2000002208210748FEF7FDFD00BFFFF720FF49
:102A300000BF002204210348FEF7F4FD00BFFFF7AA
:102A400017FF10BD0008014010B500BF002208218B
:102A50000C48FEF7E7FD00BFFFF70AFF00BF0122A9
:102A600004210848FEF7DEFD00BFFFF701FF00BFAD
:102A7000012208210348FEF7D5FD00BFFFF7F8FE4D
:102A800010BD00000008014070B50024002500BF03
:102A9000012208211448FEF7C5FD00BFFFF7E8FE3C
:102AA00000BF012204211048FEF7BCFD00BFFFF764
:102AB000DFFE07E0601CC4B2FA2C03DDFFF7C4FFA1
:102AC000012505E008210848FEF7A4FD0028F1D102
:102AD00000BF00BF002204210348FEF7A3FD00BF92
:102AE000FFF7C6FE284670BD0008014000B585B05E
:102AF00000BF00BF1B48806940F010001949886181
:102B00000846806900F01000009000BF00BF00BFC1
:102B100000BF00BF0846806940F004008861084695
:102B2000806900F00400009000BF00BF00BF4FF4B8
:102B30000050019000200290012003900320049097
:102B400001A90948FEF7D6FB012001900020029060
:102B5000022003900320049001A90448FEF7CAFB59
:102B600005B000BD00100240001001400008014007
:102B700000B585B000BF00BF1048806940F0040078
:102B80000E4988610846806900F00400009000BF8B
:102B900000BF00BF88150190012002900390032020
:102BA000049001A90648FEF7A5FB00BF012211020F
:102BB0000348FEF737FD00BF05B000BD001002401E
:102BC0000008014010B5FEF745FD4FF4E01000F09D
:102BD00055F84820FFF79AFD4FF4E13000F082F8F5
:102BE000FFF7C6FFFFF782FF00F004F8FFF7C2FD12
:102BF000002010BD10B50BA0FDF7EEFA0AA0FDF7FE
:102C0000EBFA12A0FDF7E8FA15A0FDF7E5FA17A018
:102C1000FDF7E2FA04A0FDF7DFFA0BA0FDF7DCFAFE
:102C200010BD00000A0000002A2A2A2A2A2A2A2A7D
:102C30002A2A2A2A2A2A2A2A2A2A2A2A2A2A2A2AF4
:102C40002A2A2A2A2A2A2A2A0D0A000054656D7087
:102C50002648756D2053656E736F720D0A00000073
:102C600041544B2D4D423031360D0A0041544F4DE9
:102C700040414C49454E54454B0D0A0030B58FB08C
:102C800005460124282105A8FDF739FB14216846D3
:102C9000FDF735FB01200590000406900020079009
:102CA00002200C90C1030D910E9505A8FEF7A6FE1B
:102CB00004460CB100BFFEE70F20009002200190F7
:102CC000002002904FF480600390002004900221C5
:102CD0006846FEF75DFD04460CB100BFFEE70FB08D
:102CE00030BD000010B5044609480A49086008468E
:102CF000446000218160C160016181610C214161FA
:102D0000FFF774F9012204490248FFF703FA10BDE6
:102D100000380140E40000201A00002010B500290E
:102D20000AD00878002807D005487844FDF77EFED1
:102D3000002801D0002010BD0248784410BD0000DA
:102D4000460600003E0600000808A0F500114FEA04
:102D50003101704743004FEAD30C4FEA3C0C43402B
:102D60001FBF40070CF1605113F0FE4F70471CF07D
:102D7000006F03D100200CF0004170470CF00043BD
:102D800043EA507010B540EACC0000F0C8F900BF2B
:102D9000000000924FEA0001FFF7D6BF4FF000415C
:102DA0004FF00000A1F500217047000090EA010FEC
:102DB00048BF81F0004100F10482421A3CBF801AF2
:102DC00089184FEAD0524FF07F4C1CEA410FA2EB1A
:102DD000D15318BF9CEA026F00F03B804FF0004CCB
:102DE0004CEA00204CEA012121FA03FC10EB0C0C08
:102DF0001ED202F1FF325FEA1C2040EBC25038BF06
:102E000070471CF07F0F4FEA400C18BFBCF17F4F9A
:102E100038BF7047C3F12003994008BF20F001007C
:102E2000BCF17F4F38BF7047A0F1C04000F0BDB982
:102E30004FEA3C00000A40EBC25028BF1CF0FF0FD5
:102E40004FEA400CE6D018BFBCF17F4F38BF704747
:102E5000EAE79CEA026F05D010EA5C0F08BF00F0B9
:102E60000040704710B500F05AF900BF64FBBE3E49
:102E70004FF47F0C1CEAD0121EBF1CEAD11392EA59
:102E80000C0F93EA0C0F00F0858090EA010F48BF09
:102E900042F4807240F4000C41F400002CF07F41B9
:102EA00020F07F4000B58142A2EB03020FF2081C24
:102EB000ACEB504EC0F100009EF800E04FEA4E0E21
:102EC00000FB0EFC38BF49004FEA2C1C02F5FA0249
:102ED0000CFB0EF34FEACE1E4FEA112C4FEAC12134
:102EE0000EEB635E42EB22420EFB0CFC4FEA1C53DE
:102EF00000FB03114FEA112C4FEA01310EFB0CFCD1
:102F00004FEADC4C00FB0C11C14228BF09184CEB06
:102F100003335DF804EB10EB410143EBC250B2F513
:102F20007C0F38BF704729D512F0F00F1CBF00F19D
:102F3000C04000F00040704700818283848586870E
:102F400088898B8C8D8E8F919293959697999A9C68
:102F50009D9FA0A2A3A5A7A8AAACAEB0B2B3B5B7D7
:102F6000B9BCBEC0C2C5C7C9CCCED1D4D7D9DCDFAD
:102F7000E2E6E9ECF0F3F7FAFE0000004FEA400C5D
:102F80000CF1807CBCF17E4F28BF7047B0F1C0408F
:102F900000F00BB990EA010F0CEAD11348BF42F4DC
:102FA0008072624538BF634507D213F47F0F16D095
:102FB00080EA010000F00040704710B500F0AFF863
:102FC000097EFC3E00F005B880EA010000F00040F8
:102FD000704780EA010000F0004000F0E6B812F40B
:102FE0007F0F04BF0248704780EA010000F0DDB89F
:102FF0000000C07FB0FA80F310FA03F2C3F19D0322
:103000000AD0D90501EB1220530638BF704700F1F2
:10301000010008BF20F00100704700004FF47F0C52
:103020001CEAD0121EBF1CEAD11392EA0C0F93EADD
:103030000C0F00F0478090EA010F48BF42F4807205
:103040004FF0004C4CEA00204CEA012102EB030255
:10305000A0FB0113A2F50002002918BF43F00103F1
:103060005B0028BF4FEA330342EB22425FEA132C96
:103070004CEBC2502EBFBCEB436FB2F57C0F7047D8
:103080004FEA036CBCF1004F08BF20F00100B2F51D
:103090007C0F38BF70470BD582F0FF0212F5803FDE
:1030A000C8BF704700F1C040D8BF00F00040704773
:1030B00000F5000C5FEA4C0C48BF7047B0F1C0400F
:1030C00000F073B890EA010F0CEAD11348BF42F444
:1030D0008072624538BF634504D280EA010000F087
:1030E0000040704710B500F01AF800BF8900013E9B
:1030F00000F007B800F009B85FEA410C5FEA1C6C09
:1031000008D080EA010000F050B85FEA400C5FEAA6
:103110001C6CF6D14FF00040A0F5800070470EF116
:10312000020E2EF0030E5EF8044B244204D44FEA44
:103130004102B2F17F4F11D84FEA4003B3F17F4F04
:103140000CD80ED14FEAD07CB2F17F4F0CEB4C0C77
:103150000CF1020C08BF4CEBD17C04E04FF0080CE2
:1031600001E04FEAD17C0CEB4C0324FA03F404F0A9
:103170000704B4F1040C06D20EEB840CBDE8104039
:103180004CF0010C6047DFE80CF0070802024FF03A
:103190000040A0F5800010BD0846420018BFD2F1E3
:1031A000807288BF00F0004010BDFF2141EAD0507E
:1031B000C005704790EA010F48BF81F000413FF51C
:1031C000FCAD421A04D882F00042A0EB0200114488
:1031D0004FEAD0524FF07F4C1CEA410FA2EBD15383
:1031E00018BF9CEA026F4AD04FF0004C4CEA002016
:1031F0004CEA012121FA03FCB0EB0C0C0FD412F0C5
:10320000FE0F36D05FEA4C001DD5001240EBC250D5
:1032100038BF70471CF03F0F18BF70470BE0A2F19A
:1032200001025FEA1C2040EBC25038BF70471CF01F
:103230007F0F18BF7047C3F12003994014BF401E91
:1032400020F00100704780084FEA122308BF704742
:10325000B0FA80FCA2EB0C02CCF1280C60FA0CF066
:1032600093EA122F04BF00EBC25070474FEAC370BD
:103270007047130A5FEADC1008BF7047F6E79CEA64
:10328000026F04D010EA5C0F08BF0020704710B531
:10329000FFF745FF40DFF63E81F000407047FDF745
:1032A00032B900000000000000000102030406071C
:1032B00008090000000001020304000002400000B1
:1032C000000000A00000000005400000000000C851
:1032D000000000000C4000000000409C00000000C6
:1032E000194000000020BCBE000000003440000077
:1032F000BFC91B8E00000004B5400000504BCFD06A
:103300006607E2CF010000006C4100003E8251AA36
:10331000DFEEA73401000000D9420000DCB5A0E2D6
:103320003A301F97FFFFFFFFB4450000FD25A0C8FE
:10333000E9A3C14FFFFFFFFFFF3F00000000008037
:1033400000000000FF3F00000000008000000000BF
:103350008C330008000000201C0000002801000839
:10336000A83300081C0000206C0500004401000880
:103370001C00000043000000F8FFFFFF0C000000ED
:103380000E0000000F0000002E0000000024F400DA
:10339000000000001000000001000000000000001C
:0833A000000000000000000025
:04000005080000ED02
:00000001FF
