:020000040800F2
:10000000A005002091010008F3150008EB15000879
:10001000EF150008E5050008A11800080000000021
:100020000000000000000000000000002116000891
:10003000E905000800000000F51500082316000877
:10004000A7010008A7010008A7010008A7010008F0
:10005000A7010008A7010008A7010008A7010008E0
:10006000A7010008A7010008A7010008A7010008D0
:10007000A7010008A7010008A7010008A7010008C0
:10008000A7010008A7010008A7010008A7010008B0
:10009000A7010008A7010008A7010008A7010008A0
:1000A000A7010008A7010008A7010008A701000890
:1000B000A7010008A7010008A7010008A701000880
:1000C000A7010008A7010008A7010008A701000870
:1000D000A70100087D180008A7010008A701000873
:1000E000A7010008A7010008A701000800F002F816
:1000F00000F03FF80AA090E8000C82448344AAF183
:100100000107DA4501D100F034F8AFF2090EBAE880
:100110000F0013F0010F18BFFB1A43F0010318473B
:10012000005B0000205B0000103A24BF78C878C153
:10013000FAD8520724BF30C830C144BF04680C60ED
:10014000704700000023002400250026103A28BF35
:1001500078C1FBD8520728BF30C148BF0B60704739
:10016000642900F06580002070471FB51FBD10B5E1
:1001700010BD00F005FA1146FFF7F7FF02F084FC0E
:1001800000F023FA03B4FFF7F2FF03BC02F041F9D9
:1001900008480047FEE7FEE7FEE7FEE7FEE7FEE76A
:1001A000FEE7FEE7FEE7FEE703480449024A044B88
:1001B00070470000ED000008A0010020A00500200D
:1001C000A0010020704700000FB4044910B503AA35
:1001D000029800F0A7F910BC5DF814FB1400002091
:1001E00070B5044685690068C10601D5302600E077
:1001F0002026C00707D070BDD4E9012130469047C2
:10020000206A401C20626D1EF6D570BD70B5044694
:1002100085690078C00707D170BDD4E9012120208D
:100220009047206A401C20626D1EF6D570BD00000C
:100230002DE9F0410646002410687529314616A5BF
:1002400010D0AFF30080002802DA404213A507E087
:1002500031688A0701D512A502E0490704D511A526
:10026000012401E0AFF3008000210A2206F12407F7
:1002700009E0B0FBF2FCB0FBF2F302FB1C003030F3
:1002800078541846491C0028F3D123462A463046A4
:10029000BDE8F04100F0ECB8000000002D000000C7
:1002A0002B000000200000002DE9F0474FF0000A6D
:1002B00089460446C0F820A02046E1688847002807
:1002C00076D0252806D0D4E901219047206A401C29
:1002D0002062F1E7E168204600258847C4F81CA0A9
:1002E00006460027C4F818A02A2E09D0304602F08E
:1002F00089F838B304EB8708303EC8F8186019E075
:1003000059F8041B204604EB87029161E168884795
:10031000012F064618D1E069002820DA25F02005D3
:100320001DE0D8F8180000EB800006EB40003038E4
:10033000C8F818002046E1688847064602F062F8CF
:100340000028EED1012F0AD02E2E08D12046E168D8
:1003500088477F1C0646022F45F02005C4DBA069B4
:10036000002803DA404245F00105A061E80701D00A
:1003700025F01005B6B1A6F14100192802D82036A3
:1003800045F400654A463146204625604D46FFF754
:10039000E7FE58B1012806D0ED1D25F0070000F159
:1003A000080989E704E005F1040985E730468AE792
:1003B000206ABDE8F08710B5203AC0F00B80B1E8A4
:1003C0001850203AA0E81850B1E81850A0E818508A
:1003D000BFF4F5AF5FEA027C24BFB1E81850A0E893
:1003E000185044BF18C918C0BDE810405FEA827CAD
:1003F00024BF51F8043B40F8043B08BF7047D207C4
:1004000028BF31F8023B48BF11F8012B28BF20F864
:10041000023B48BF00F8012B70474FF0000200B5C7
:10042000134694469646203922BFA0E80C50A0E817
:100430000C50B1F12001BFF4F7AF090728BFA0E8C5
:100440000C5048BF0CC05DF804EB890028BF40F891
:10045000042B08BF704748BF20F8022B11F0804FD3
:1004600018BF00F8012B70477047704770477047FE
:100470002DE9F0470D4699469246044600F12408BE
:100480000168880604D5E06921F01001216000E0D0
:100490000120A84201DD471B00E00027A1697A196D
:1004A00002EB0900081AA0612078C00602D4204699
:1004B000FFF796FE002608E0D4E901211AF80600AD
:1004C0009047206A401C761C20624E45F4DB207861
:1004D000C0060AD52046FFF783FE06E0D4E90121D5
:1004E00030209047206A401C2062381EA7F1010787
:1004F000F4DC07E0D4E9012118F805009047206AF0
:10050000401C2062281EA5F10105F3DC2046FFF700
:100510007DFE2078000602D50220BDE8F08701208C
:10052000FBE70000074B70B50D467B4400F011F867
:100530000446284600F020F810B14FF0FF3070BD9F
:10054000204670BD9B21000001694A1C02610878A9
:10055000704700B58FB0CDE9013100210591054903
:100560007944CDE9031011466846FFF79DFE0FB0B0
:1005700000BD0000E5FFFFFF007B00F0800070473A
:10058000754600F02BF8AE4605006946534620F04C
:100590000700854618B020B5FFF706FEBDE82040ED
:1005A0004FF000064FF000074FF000084FF0000B2F
:1005B00021F00701AC46ACE8C009ACE8C009ACE8E2
:1005C000C009ACE8C0098D46704710B50446AFF3CA
:1005D00000802046BDE81040FFF7D4BD00487047BA
:1005E0004001002000BFFEE770474FF40050704705
:1005F00038B50020009000246946082001F08AFFE9
:1006000004439DF80000662803D09DF80000AA2846
:1006100002D124F0800401E044F08004204638BD7B
:1006200070B50446002594F82100022803D0042068
:10063000A063012548E02068006820F00E002168D2
:1006400008602068006820F00100216808601F49E8
:100650002068884201D1012026E01C49143120681D
:10066000884201D110201FE01849283120688842B3
:1006700001D1801518E015493C312068884201D12C
:10068000801411E0114950312068884202D14FF4A2
:10069000803009E00D4964312068884202D14FF46E
:1006A000801001E04FF0807008490839486001204F
:1006B00084F8210000BF002084F8200000BF606B98
:1006C00010B12046616B8847284670BD0800024083
:1006D0002DE9F8470346002294466EE14FF00108E9
:1006E00008FA02F4D1F8008008EA0400A0427DD1A3
:1006F000DFF8DCA2D1F80480A8EB0A09D0453AD093
:1007000014DCB8F1030F50D009DCB8F1000F31D080
:10071000B8F1010F1CD0B8F1020F49D120E0B8F1B7
:10072000110F18D0B8F1120F42D11EE0B9F5881F91
:1007300025D006DCB9F5803F20D0B9F5801F37D130
:100740001AE0B9F5001F18D0B9F5041F30D117E031
:10075000D1F80CC02DE0D1F80C8008F1040C28E091
:10076000D1F80C8008F1080C23E0D1F80C8008F1D6
:100770000C0C1EE000BF00BF00BF00BF00BF00BFE9
:10078000D1F80880B8F1000F02D14FF0040C0BE053
:10079000D1F80880B8F1010F03D14FF0080C1C61AB
:1007A00002E04FF0080C5C6103E04FF0000C00E049
:1007B00000BF00BFFF2801D8984601E003F10408FC
:1007C0004646FF2802D84FEA820803E0A2F1080853
:1007D0004FEA88084746D6F800804FF00F0909FA1B
:1007E00007F928EA09080CFA07F900E088E048EA66
:1007F0000908C6F80080D1F8048008F08058B8F1E4
:10080000805F7DD100BFDFF8CC81D8F8188048F038
:100810000108DFF8C091C9F81880C846D8F81880D8
:1008200008F00108CDF8008000BF00BF4FEAB938DA
:100830004FEA920958F829504FEA82784FEA18791E
:100840004FF00F0808FA09F825EA0805DFF8888153
:10085000434502D14FF0000816E0DFF880814345A0
:1008600002D14FF001080FE0DFF87481434502D157
:100870004FF0020808E0DFF86C81434502D14FF0E9
:10088000030801E04FF004084FEA82794FEA197932
:1008900008FA09F848EA0505DFF84C814FEA9209A1
:1008A00048F82950D1F8048008F48038B8F5803F22
:1008B0000AD1DFF83881D8F8008048EA0008DFF86C
:1008C0002C91C9F8008009E0DFF82081D8F8008079
:1008D00028EA0008DFF81491C9F80080D1F80480F4
:1008E00008F40038B8F5003F10D1DFF8008108F1B6
:1008F0000408D8F8008048EA0008DFF8F09000E02B
:100900005AE009F10409C9F800800DE0DFF8DC8045
:1009100008F10408D8F8008028EA0008DFF8CC9035
:1009200009F10409C9F80080D1F8048008F480189E
:10093000B8F5801F0ED1DFF8B48008F10808D8F8A8
:10094000008048EA0008DFF8A49009F10809C9F816
:1009500000800DE0DFF8948008F10808D8F80080E6
:1009600028EA0008DFF8849009F10809C9F8008036
:10097000D1F8048008F40018B8F5001F0ED1DFF894
:100980006C8008F10C08D8F8008048EA0008DFF80D
:100990005C9009F10C09C9F800800DE0DFF84C808B
:1009A00008F10C08D8F8008028EA0008DFF83C902D
:1009B00009F10C09C9F80080521CD1F8008028FA0E
:1009C00002F8B8F1000F7FF489AEBDE8F8870000A7
:1009D000000011100010024000080140000C01400E
:1009E00000100140001401400800014000040140D3
:1009F000024693680B400BB1012000E000207047D5
:100A00000AB1016101E00B0403617047014800680D
:100A1000704700000400002003480068034909787B
:100A20000844014908607047040000200C000020C1
:100A300010B50848006840F010000649086005201D
:100A400000F080F80F2000F007F800F02BF80020ED
:100A500010BD00000020024070B504460E4800782A
:100A60004FF47A71B1FBF0F00C490968B1FBF0F575
:100A7000284600F0E3FB08B1012070BD102C07D21E
:100A800000222146501E00F01EF80548046001E0D7
:100A90000120F2E70020F0E70C0000200000002019
:100AA00008000020704701460846002809DB00F0D6
:100AB0001F0301229A4043099B0003F1E023C3F87E
:100AC000002100BF70472DE9F05F80460D461646B5
:100AD000002701F07BFC074639462A46334601F0E1
:100AE0000700C0F1070ABAF1040F02D94FF0040A57
:100AF00001E0C0F1070AD14600F1040ABAF1070F7C
:100B000002D24FF0000A01E0A0F1030AD4464FF0F0
:100B1000010A0AFA09FAAAF1010A0AEA020A0AFA19
:100B20000CFA4FF0010B0BFA0CFBABF1010B0BEACB
:100B3000030B4AEA0B042146404601F04FFCBDE896
:100B4000F09F000000BF00F00702064B19684FF647
:100B5000FF031940044B0B4343EA0221014B196088
:100B600000BF70470CED00E00000FA0570B50446C8
:100B70000D460CB9012070BD5A48006800F007000E
:100B8000A8420ED25748006820F007002843554974
:100B900008600846006800F00700A84201D0012064
:100BA000E9E7207800F0020002281DD1207800F04B
:100BB0000400042805D14C48406840F4E0604A49EC
:100BC0004860207800F00800082805D146484068B1
:100BD00040F46050444948604348406820F0F000C9
:100BE000A168084340494860207800F0010078B3CC
:100BF0006068012806D13C48006800F4003090B9D4
:100C00000120B8E76068022806D13748006800F084
:100C1000007040B90120AEE73348006800F00200E0
:100C200008B90120A7E73048406820F00300616858
:100C300008432D494860FFF7E9FE064609E0FFF743
:100C4000E5FE801B41F28831884202D9032092E7F9
:100C500007E02548406800F00C006168B0EB810FA8
:100C6000EDD12048006800F00700A8420ED91D48C9
:100C7000006820F0070028431A4908600846006809
:100C800000F00700A84201D0012074E7207800F0AE
:100C90000400042807D11448406820F4E060E168AB
:100CA000084311494860207800F00800082808D15E
:100CB0000D48406820F46050216940EAC1000A49AB
:100CC000486000F03FF808494968C1F30311074A3A
:100CD000515CC8400649086006480068FFF7BCFE42
:100CE000002048E700200240001002408E3B000830
:100CF0000000002008000020014800687047000044
:100D00000000002000B5FFF7F7FF04494968C1F370
:100D10000221034A515CC84000BD0000001002409F
:100D20009E3B000800B5FFF7E7FF04494968C1F39F
:100D3000C221034A515CC84000BD000000100240BF
:100D40009E3B0008F0B585B00FF26C0C9CE8E010FB
:100D500001A8A0E8E0101CA52D6800950021002244
:100D6000002300240020194D696801F00C05F5B13D
:100D7000042D02D0082D19D101E0154819E001AD6C
:100D8000C1F38346AC5D01F4803555B10F4D6D68FC
:100D9000C5F340451DF805200D4D6543B5FBF2F345
:100DA00002E00C4D04FB05F3184602E000BF0848C2
:100DB00000BF00BF05B0F0BD020304050607080927
:100DC0000A0B0C0D0E0F1010010200000010024063
:100DD00000127A0000093D00F8B504460CB9012064
:100DE000F8BD207800F00100002878D0F84840686D
:100DF00000F00C0004280CD0F548406800F00C000E
:100E0000082811D1F248406800F48030B0F5803FE6
:100E10000AD1EF48006800F4003000285FD0606815
:100E200000285CD10120DBE700BF6068B0F5803F9F
:100E300006D1E748006840F48030E549086028E0C2
:100E4000606858B9E248006820F48030E0490860E2
:100E50000846006820F4802008601AE06068B0F559
:100E6000A02F0BD1DA48006840F48020D8490860F0
:100E70000846006840F4803008600AE0D448006802
:100E800020F48030D24908600846006820F48020B1
:100E9000086000BF606888B1FFF7B8FD054606E04E
:100EA000FFF7B4FD401B642801D9032098E7C84828
:100EB000006800F400300028F2D010E0FFF7A6FD33
:100EC000054606E0FFF7A2FD401B642801D9032078
:100ED00086E7BF48006800F400300028F2D120788F
:100EE00000F00200022857D1B948406800F00C0019
:100EF00050B1B748406800F00C00082818D1B44839
:100F0000406800F4803098B9B148006800F00200F1
:100F100020B12069012801D0012061E7AC480068B8
:100F200020F0F800616940EAC100A949086033E097
:100F30002069E8B10120A7490860FFF767FD054671
:100F400006E0FFF763FD401B022801D9032047E7B5
:100F50009F48006800F002000028F2D09C4800681A
:100F600020F0F800616940EAC1009949086013E087
:100F7000002098490860FFF749FD054606E0FFF7A5
:100F800045FD401B022801D9032029E7904800684D
:100F900000F002000028F2D1207800F008000828B4
:100FA0002DD1A069B8B101208B490860FFF72EFD53
:100FB000054606E0FFF72AFD401B022801D9032061
:100FC0000EE78348406A00F002000028F2D00120BA
:100FD00000F012FB13E000207F490860FFF716FDC8
:100FE000054606E0FFF712FD401B022801D9032049
:100FF000F6E67748406A00F002000028F2D1207837
:1010000000F00400042873D100277148C06900F083
:10101000805070B900BF6E48C06940F080506C4984
:10102000C8610846C06900F08050009000BF00BF52
:1010300001276A48006800F48070B0B9674800680A
:1010400040F4807065490860FFF7E0FC054606E063
:10105000FFF7DCFC401B642801D90320C0E65F4891
:10106000006800F480700028F2D000BFE06801281A
:1010700006D15748006A40F001005549086227E050
:10108000E06858B95248006A20F0010050490862EF
:101090000846006A20F00400086219E0E0680528AC
:1010A0000BD14B48006A40F00400494908620846E9
:1010B000006A40F0010008620AE04548006A20F03A
:1010C0000100434908620846006A20F004000862F3
:1010D00000BFE068A0B1FFF799FC054609E0FFF703
:1010E00095FC401B41F28831884202D9032077E603
:1010F00022E03748006A00F002000028EFD012E03A
:10110000FFF784FC054608E0FFF780FC401B41F236
:101110008831884201D9032062E62D48006A00F038
:1011200002000028F0D1012F05D12948C06920F024
:1011300080502749C86100BFE069C8B324484068AF
:1011400000F00C00082860D0E069022848D1002097
:1011500020490866FFF75AFC054606E0FFF756FCF3
:10116000401B022801D903203AE61948006800F024
:1011700000700028F2D1206AB0F5803F07D11448F2
:10118000406820F40030A168084311494860D4E960
:10119000080108430E49496821F4741108430C49B9
:1011A000486001200B490866FFF730FC054607E060
:1011B0003DE0FFF72BFC401B022801D903200FE67E
:1011C0000348006800F000700028F2D02FE0000013
:1011D0000010024000004242800442420070004081
:1011E000002014490866FFF711FC054606E0FFF7EA
:1011F0000DFC401B022801D90320F1E50E480068D0
:1012000000F000700028F2D111E0E069012800D15F
:10121000E6E50948466806F48031206A814204D137
:1012200006F47011606A814201D00120D8E50020E7
:10123000D6E50000000042420010024070B50446AE
:101240002546681EB0F1807F01D301200FE0681EA3
:101250004FF0E02148610F214FF0FF3001F0BEF860
:1012600000204FF0E021886107200861002070BD58
:10127000704700002DE9F0470446206805682068A3
:10128000C668206847694FF00008C14605F00F089E
:10129000B8F1000F0AD105F0200038B106F02000A7
:1012A00020B1204600F0EBF9BDE8F087B8F1000F5F
:1012B00071D007F0010018B906F4907000286AD0C8
:1012C00005F0010030B106F4807018B1E06B40F019
:1012D0000100E06305F0040030B107F0010018B12F
:1012E000E06B40F00200E06305F0020030B107F06F
:1012F000010018B1E06B40F00400E06305F0080065
:1013000048B106F0200010B907F0010018B1E06BF9
:1013100040F00800E063E06B68B305F0200028B1FE
:1013200006F0200010B1204600F0A9F920684069BD
:10133000C0F38019E06B00F0080010B9B9F1000F9C
:1013400022D0204600F07BF92068406900F0400080
:10135000B0B12068406920F0400021684861606BAE
:1013600050B11848616B4863606BFFF759F910B1D1
:10137000606B416B88470CE02046FFF779FF08E07F
:101380002046FFF775FF04E02046FFF771FF0020BD
:10139000E06389E7FFE705F0800030B106F08000E8
:1013A00018B1204600F03AFA7EE705F0400030B16F
:1013B00006F0400018B1204600F051F974E700BF74
:1013C00072E700002B16000810B504460CB9012086
:1013D00010BDA06900B100E000BF94F8390028B941
:1013E000002084F83800204600F028F8242084F8F3
:1013F00039002068C06820F400502168C860204689
:1014000000F08EF92068006920F49040216808619E
:101410002068406920F02A00216848612068C0687F
:1014200040F400502168C8600020E063202084F868
:10143000390084F83A000020CAE7000010B586B0F1
:1014400004462849206888424AD100BF00BF264888
:10145000806940F00400244988610846806900F0F2
:101460000400019000BF00BF00BF00BF00BF0846DE
:10147000806940F0040088610846806900F004003B
:10148000019000BF00BF00BF00BF00BF08468069D9
:1014900040F4804088610846806900F480400190F3
:1014A00000BF00BF00BF481502900220039001203A
:1014B00004900320059002A90C48FFF709F94FF4A6
:1014C000806002900020039002A90848FFF700F90D
:1014D0002520FFF7E8FA032211462520FFF7F3FA4B
:1014E00006B010BD00380140001002400008014065
:1014F00010B5034693F83A0020282FD101B10AB95C
:10150000012010BD00BF93F83800012801D102204E
:10151000F7E7012083F8380000BF99629A85DA85E1
:101520000020D863222083F83A0000BF002083F80F
:10153000380000BF1868C06840F480701C68E06024
:101540001868406940F001001C6860611868C06854
:1015500040F020001C68E0600020D2E70220D0E7C5
:101560001D4A0168914236D11C49098801F40041A5
:1015700089BB1A49098801F4804171B11849097879
:101580000A2903D00021154A118024E01349098853
:1015900041F40041114A11801DE0114909780D29DB
:1015A00006D10E49098841F480410C4A118012E0AD
:1015B0000B490978094A1288C2F30D02094B995464
:1015C00006490988491C054A118011460988C7291E
:1015D00001DD002111807047003801401800002013
:1015E0001A00002020000020704700BFFEE700BF67
:1015F000FEE770477047000008B508490968C90848
:101600004FF47A72B1FBF2F14143009100BF00BF89
:1016100000994A1E00920029F9D108BD000000205F
:10162000704710B5FFF7F8F910BD70B505466C6A44
:101630000020E085E0842046FFF71AFE70BD0168B7
:10164000C96821F490710268D1600168496921F08C
:10165000010102685161202180F83A10704710B5ED
:1016600004462068C06820F040002168C86020203F
:1016700084F839002046FFF7B7FF002010BD70B591
:10168000044694F83A00222847D1A068B0F5805F5C
:101690000CD1206950B90025A66A20684068C0F3C3
:1016A00008003080A06A801CA06215E0A56A0026B0
:1016B000A068B0F5805F03D0A06828B9206918B988
:1016C00020684068287004E02068406800F07F00CF
:1016D0002870A06A401CA062E08D401E80B2E085A8
:1016E000C8B92068C06820F020002168C860206860
:1016F000C06820F480702168C8602068406920F0CC
:10170000010021684861202084F83A002046FFF754
:1017100027FF002070BD0020FCE70220FAE7000050
:1017200070B504462168096921F44051E26811430B
:10173000226811612269A1681143626941EA0205C8
:101740002168C96841F20C62914329432268D16043
:101750002168496921F44071A269114322685161ED
:101760002D4A2168914202D1FFF7DCFA01E0FFF730
:10177000C9FA00EBC00101EB001162689200B1FBF5
:10178000F2F100EBC00202EB001263689B00B2FBB7
:10179000F3F26423B2FBF3F202EBC20303EB021297
:1017A000A1EB8201322202EB01116422B1FBF2F1C2
:1017B00001F0F00100EBC00202EB001263689B0035
:1017C000B2FBF3F26423B2FBF3F201EB021200EB83
:1017D000C00101EB001163689B00B1FBF3F100EB6A
:1017E000C00303EB00136668B600B3FBF6F3642690
:1017F000B3FBF6F303EBC30606EB0313A1EB830184
:10180000322303EB01116423B1FBF3F101F00F016B
:1018100011442268916070BD00380140014691F882
:101820003900212828D18868B0F5805F0BD108697C
:1018300048B90A6A1088C0F308000B685860086A43
:10184000801C086205E00B6A581C086218780B6857
:101850005860C88C401E80B2C88458B90868C068F7
:1018600020F080000B68D8600868C06840F0400035
:101870000B68D860002070470220FCE710B50648CE
:10188000FFF7F8FC00BF012204490348FFF730FED0
:101890000028F8D110BD0000E80000201A00002048
:1018A00000BFFEE710B5044621460A2000F07DFE89
:1018B00010BD38B5054600240020009000F078FBEC
:1018C000044300210C2000F070FE044301210D2090
:1018D00000F06BFE044312210E2000F066FE04436C
:1018E00009210A2000F061FE0443052000F0A4FE57
:1018F00069460C2000F00EFE04439DF800002844C9
:10190000C0B200909DF80000BF2801DBBF2000900E
:1019100000F04EFB044301210C2000F046FE04437E
:1019200001210D2000F041FE044312210E2000F0A1
:101930003CFE04439DF800100F2000F036FE0443E7
:1019400009210A2000F031FE0443052000F074FE56
:10195000204638BD2DE9F74FAAB08B4600202990CC
:101960008246289000BF00BF80468146269027907F
:101970002822AA491CA8FEF71EFD2822A7492831C3
:1019800012A8FEF718FD2822A449503108A8FEF736
:1019900012FD2A9801042C98B1FBF0F0400007904A
:1019A00001F085FB06460F469D4883450BD94FEA5B
:1019B0000B212C98B1FBF0F08000079001F077FB31
:1019C00004460D4618E0974883450BD94FEA4B2152
:1019D0002C98B1FBF0F04000079001F068FB044642
:1019E0000D4609E04FEA8B212C98B1FBF0F00790EF
:1019F00001F05DFB04460D460A2029904FF0000AD5
:101A0000CDE01CAA0AF1010152F8210001F04FFBC0
:101A100032463B46CDE9060101F096FC66D21CA990
:101A200051F82A0001F043FB32463B46CDE9020162
:101A300001F0C0FCCDE9040101F0DCFA00B207902E
:101A4000002801DB079801E00798404212AA0AF13A
:101A5000010152F8211052F82A20891A48431CAA81
:101A60000AF1010152F8211052F82A20891AB0FB1C
:101A7000F1F012A951F82A100844069001F017FB62
:101A8000804689461CA951F82A0001F010FB324615
:101A90003B46CDE9020101F08DFCCDE9040101F0E6
:101AA000A9FA00B20790002801DB079801E0079827
:101AB000404208AA0AF1010152F8211052F82A20E6
:101AC000891A48431CAA0AF1010152F8211052F860
:101AD0002A20891AB0FBF1F008A951F82A1008440D
:101AE000069001F0E4FACDE926015DE0259801F0C9
:101AF000DEFA32463B46CDE9060101F0EBFA4AD860
:101B0000249801F0D4FA32463B46CDE9020101F0B7
:101B100051FCCDE9040101F06DFA00B207900028F4
:101B200001DB079801E007984042DDE91A21891A94
:101B30004843DDE92421891AB0FBF1F11A980844E1
:101B4000069001F0B4FA80468946249801F0AFFA75
:101B500032463B46CDE9020101F02CFCCDE90401FF
:101B600001F048FA00B20790002801DB079801E075
:101B700007984042DDE91021891A4843DDE9242114
:101B8000891AB0FBF1F010990844069001F08FFA21
:101B9000CDE9260108E00AF1010000F0FF0A2998CA
:101BA000401E50453FF72DAF00BF20462946DDE9D6
:101BB000262301F0C9FB02D26420289029E0424686
:101BC0004B462046294601F085FA02D20020289093
:101BD0001FE042464B46DDE9260101F0F7FB424695
:101BE0004B46CDE904012046294601F0EFFB0022D7
:101BF0000D4BCDE9000101F0A9FACDE90201DDE9C3
:101C0000042301F09FF8CDE9060101F023FAC0B2E8
:101C1000289028982DB0BDE8F08F0000A83B000860
:101C200000127A0000093D000000594038B5002438
:101C30000020009001200B49887000F033FC6946B9
:101C4000062000F067FC04439DF80000D82800D06F
:101C50001024054800F00AF8044300F02FFB044369
:101C6000204638BD280100201D0000202DE9F0414C
:101C7000054600240526052700BF2946382000F028
:101C800049FC04432878302802D1701EC6B201E016
:101C9000781EC7B20EB1002FEFD116B931202870CF
:101CA00001E0302028703348807828B10C210120D1
:101CB00000F07BFC044304E00821012000F075FCE7
:101CC00004430021072000F070FC04430121072099
:101CD00000F06BFC04430021072000F066FC044385
:101CE0002121042000F061FC04430E21052000F0B6
:101CF0005CFC04430021082000F057FC04438021D1
:101D0000372000F052FC04433021382000F04DFC15
:101D100004430021392000F048FC044330213A20DC
:101D200000F043FC044380213B2000F03EFC0443D0
:101D300080213C2000F039FC044380213D2000F04C
:101D400034FC044300213E2000F02FFC044300211A
:101D50003F2000F02AFC04430E21072000F025FC60
:101D600004430F21072000F020FC04432046BDE877
:101D7000F08100002801002008B5002000900349F0
:101D800008706946032000F0C5FB08BD1B00002059
:101D9000F8B507460E460024002500F0DDFA04439E
:101DA00017E003208DF8000020208DF801000222AA
:101DB00069460A2000F007FC044307EB4511202286
:101DC0000C2000F000FC0443A6F1200086B2681C41
:101DD000C5B2202EE5DA002E12DD03208DF80000BA
:101DE00020208DF80100022269460A2000F0EBFB5A
:101DF000044307EB451120220C2000F0E4FB0443D0
:101E000000F078FA0443642000F016FCFEF7F0FBC3
:101E100004430320FFF74DFD04432046F8BD0000B6
:101E200038B504460025002000900D48C07820B940
:101E30006946032000F06EFB05430A48007820B98C
:101E40009DF8000000F0010028B101202070002062
:101E50000449087001E000202070284638BD0000C9
:101E6000280100201B0000202DE9F04F91B004460E
:101E7000002500201090202108A8FEF7CEFA40F699
:101E8000B83900200790002600278046069005906C
:101E9000049003908246029061E010A8FFF7C0FF13
:101EA00005439DF84000002851D0202208A90C20AD
:101EB00000F03FFB05430A9803900D9804900B989F
:101EC0000790DDF8367027F07F47BDF83A0006909E
:101ED000DDF83C80BDF82E0005903A46BDF818109C
:101EE000039800F0A1F90290BDF91C0001F0A4FCD8
:101EF0000090029901F054FB01901F48016901987C
:101F000001F0D0FD834601F07BFC06B2002E00DA22
:101F100000263A464146BDF81800FFF71BFD8246F1
:101F2000322E07DA1548804504D2BAF1320F01DDAE
:101F30004FF0320A6760268084F802A0C4F8088057
:101F4000BDF81800A081BDF81400E0810EE0B9F1E1
:101F5000000F01D145F01005012000F06DFBB9F133
:101F60000000A9F101011FFA81F996D100BF2846AE
:101F700011B0BDE8F08F00002801002000350C00F2
:101F800070B5054600240949087900F018F90443A2
:101F90000649087A00F04CF804430449888900F0A7
:101FA000C1F8044301480561204670BD28010020A6
:101FB00010B500240F21072000F0F7FA04430E218A
:101FC000072000F0F2FA0443052000F035FB20461C
:101FD00010BD00002DE9F04705460C46002700BF64
:101FE00000BF00BFBA4640F2B75060430A21B0FBC1
:101FF000F1F80D4890FBF5F9A9EB08000B49461ADA
:10200000002E00DC05E049F6C47096FBF0F01FFAE4
:1020100080FA204600F056F80746504600F02CF8AB
:1020200007463846BDE8F08700CA9A3BC0C62D0077
:1020300070B505460024FFF7BBFF044301210C20C7
:1020400000F0B3FA044301210D2000F0AEFA04437E
:102050001A210E2000F0A9FA044329460F2000F0AF
:10206000A4FA044309210A2000F09FFA0443052042
:1020700000F0E2FA204670BD70B50546002401214B
:102080000C2000F092FA044302210D2000F08DFA9A
:10209000044304210E2000F088FA0443290A0F208B
:1020A00000F083FA0443E9B2102000F07EFA044302
:1020B00009210A2000F079FA0443052000F0BCFA57
:1020C000204670BD70B505460024FFF771FF04433C
:1020D00001210C2000F069FA044303210D2000F0D7
:1020E00064FA044301210E2000F05FFA0443E9B2D0
:1020F0000F2000F05AFA0443C5F30721102000F026
:1021000054FA0443C5F30741112000F04EFA04438A
:1021100009210A2000F049FA0443052000F08CFA56
:10212000204670BD70B505460024FFF741FF04430B
:1021300001210C2000F039FA044302210D2000F0A7
:1021400034FA044317210E2000F02FFA0443290A21
:102150000F2000F02AFA0443E9B2102000F025FA1B
:10216000044309210A2000F020FA0443052000F06E
:1021700063FA204670BD70B505460024FFF718FFCE
:10218000044301210C2000F010FA044301210D202A
:1021900000F00BFA04430E21084600F006FA04434F
:1021A00029460F2000F001FA044309210A2000F01B
:1021B000FCF90443052000F03FFA204670BD70B5DD
:1021C00005460024FFF7F4FE044301210C2000F033
:1021D000ECF9044301210D2000F0E7F9044300214C
:1021E0000E2000F0E2F9044329460F2000F0DDF94B
:1021F000044309210A2000F0D8F90443052000F027
:102200001BFA204670BD10B50024FFF7B5FD04434E
:10221000FEF7EEF90443FFF7CBFE04430F20FFF770
:1022200041FB0443204610BD2DE9F05F04461546EE
:10223000002715B93846BDE8F09FB4F5803F09D9AD
:102240002002B0FBF5F04FEA0028404601F00CFBFD
:10225000064606E02004B0FBF5F8404601F004FB1A
:1022600006464FF08B41304601F008FA06460F490A
:10227000304601F041FB83460D4901F009FC8246DE
:1022800051460C4801F0FAF981460B4901F00AFC6D
:102290008046064901F0F2F907460021384601F070
:1022A000F7FA00D200273846C5E7000000002041B9
:1022B0000000994598DA0C4B0040F04438B50025F1
:1022C000002400BF012000F0B7F96946022000F0A9
:1022D00021F905462046641C142805DA9DF8000003
:1022E00000F001000028EDD1142C01DB022038BDE4
:1022F0002846FCE710B500241648807828B10C2148
:10230000012000F052F9044304E00821012000F00C
:102310004CF904430621002000F047F90443A021B2
:102320003B2000F042F9044380213B2000F03DF9BE
:1023300004430721002000F038F90443022107205C
:1023400000F033F904430021072000F02EF9044384
:10235000204610BD2801002038B500240020009040
:10236000FFF726FE04430821072000F01EF904436E
:102370000A21072000F019F904430621002000F08B
:1023800014F904436946012000F0C4F804439DF8A1
:10239000000040F00101012000F007F90443012191
:1023A0000A2000F002F9044302210B2000F0FDF89E
:1023B000044300210C2000F0F8F8044300210D2014
:1023C00000F0F3F80443204638BD000002480068DE
:1023D000C0F30220704700000CED00E010B50028AB
:1023E00004DB0A07130E054A135406E00A07140E0D
:1023F000034A00F00F031B1FD45410BD00E400E09B
:1024000018ED00E030380A2801D201207047002082
:10241000704700BF7047000070B5002400F090F9CD
:1024200000201449C870FFF701FC0443FEF7DDF8F3
:10243000054629461048FFF7ABFC04430D490869DF
:10244000FFF79EFD04430120FFF795FE04434FF480
:1024500000311E20FFF7BEFD0443FFF7D4FE044306
:102460001CB106A0FDF7B0FE02E009A0FDF7ACFE2E
:1024700070BD000028010020203C0008564935337B
:102480003030B3F5CABCBBAFCAA7B0DC210D0A001F
:10249000564935333030B3F5CABCBBAFB3C9B9A662
:1024A000210D0A0000B585B000BF00BF1748806944
:1024B00040F00800154988610846806900F008006E
:1024C000009000BF00BF00BF40200190012002909B
:1024D00003900320049001A90D48FEF7F9F800BF0E
:1024E000002240210A48FEF78BFA00BF1E2000F0B0
:1024F000A3F800BF012240210548FEF781FA00BF82
:102500001E2000F099F805B000BD00000010024048
:10251000000C014070B504460D46002601222946F4
:10252000204600F006F806460EB1082070BD0020D7
:10253000FCE770B506460D46144600F0C1F9D820F8
:1025400000F088F900F002FA012803D100F0DEF96A
:10255000082070BD304600F07DF900F0F7F9012841
:1025600003D100F0D3F90820F3E700F0A9F9D9204E
:1025700000F070F900F0EAF9012803D100F0C6F983
:102580000820E6E70BE0012C01DD012100E000213D
:10259000084600F031F92870601E84B26D1C002CD2
:1025A000F1D100F0B3F90020D3E773B5044600255C
:1025B000012201A9204600F006F805460DB10820C9
:1025C0007CBD0020FCE72DE9F04107460D4616468C
:1025D00000F076F9D82000F03DF900F0B7F90128B5
:1025E00004D100F093F90820BDE8F081384600F0EE
:1025F00031F900F0ABF9012803D100F087F9082088
:10260000F2E700240CE0285D00F024F900F09EF9C8
:10261000012803D100F07AF90820E5E7601C84B2B4
:10262000B442F0DB00F072F90020DDE701490860F8
:10263000704700001000002010B504464FF47A7176
:1026400004FB01F000F002F810BD000070B5034675
:1026500000224FF0E02675690D4E366803FB06F444
:102660004FF0E026B16910E04FF0E026B0698842F3
:102670000BD0884202D20E1A324402E02E1A0E44C7
:1026800032440146A24200D300E0EDE700BF70BD36
:10269000100000201FB50024FFF7BEFE09E06846C9
:1026A000FFF7E2FB044624B9BDF9001001A0FDF7D5
:1026B0008BFDF4E7BEE0C0EB203D20253464206DA7
:1026C0006D200D0A0000000000BF054A126802F0EC
:1026D0004002002AF9D0C2B2014B1B1D1A6070479C
:1026E0000038014010B500BF002208211048FEF755
:1026F00087F900BF00F01EF800BF012204210C483A
:10270000FEF77EF900BF00F015F800BF002204219B
:102710000748FEF775F900BF00F00CF800BF012272
:1027200008210348FEF76CF900BF00F003F810BD64
:102730000008014010B50220FFF788FF10BD00001F
:1027400000B585B000BF00BF1948806940F00400A3
:10275000174988610846806900F00400009000BFB6
:1027600000BF00BF00BF00BF0846806940F0040002
:1027700088610846806900F00400009000BF00BF37
:1027800000BF0420019001200290039003200490D8
:1027900001A90848FDF79CFF082001901120029034
:1027A00001A90448FDF794FF00F0B0F805B000BDA2
:1027B000001002400008014010B500BF01220821AE
:1027C0000C48FEF71DF900BFFFF7B4FF00BF012260
:1027D00004210848FEF714F900BFFFF7ABFF00BF64
:1027E000002204210348FEF70BF900BFFFF7A2FF08
:1027F00010BD00000008014070B505460024002609
:102800001CE06006040E00BF012204211048FEF700
:10281000F7F800BFFFF78EFF08210D48FEF7E8F834
:1028200008B1601CC4B200BF002204210848FEF7B2
:10283000E7F800BFFFF77EFF701CC6B2082EE0DB92
:1028400015B9FFF7B9FF01E0FFF74CFF204670BD57
:102850000008014070B50446002524E000BFE009EF
:1028600028B1012208211548FEF7CAF804E0002229
:1028700008211248FEF7C4F800BFFFF75BFF00BF56
:10288000012204210D48FEF7BBF800BFFFF752FFFD
:1028900000BF002204210948FEF7B2F800BF60061D
:1028A000040E681CC5B2082DD8DB00BF0122082128
:1028B0000248FEF7A5F800BF70BD00000008014007
:1028C00010B500BF012208210F48FEF799F800BF9C
:1028D00000BF012204210C48FEF792F800BFFFF769
:1028E00029FF00BF002208210748FEF789F800BF32
:1028F000FFF720FF00BF002204210348FEF780F805
:1029000000BFFFF717FF10BD0008014010B500BF62
:10291000002208210C48FEF773F800BFFFF70AFFFA
:1029200000BF012204210848FEF76AF800BFFFF744
:1029300001FF00BF012208210348FEF761F800BF34
:10294000FFF7F8FE10BD00000008014070B500243C
:10295000002500BF012208211448FEF751F800BFEE
:10296000FFF7E8FE00BF012204211048FEF748F8F7
:1029700000BFFFF7DFFE07E0601CC4B2FA2C03DDE6
:10298000FFF7C4FF012505E008210848FEF730F8ED
:102990000028F1D100BF00BF002204210348FEF748
:1029A0002FF800BFFFF7C6FE284670BD00080140A3
:1029B00000B585B000BF00BF1B48806940F0100023
:1029C000194988610846806900F01000009000BF36
:1029D00000BF00BF00BF00BF0846806940F0040090
:1029E00088610846806900F00400009000BF00BFC5
:1029F00000BF4FF40050019000200290012003908E
:102A00000320049001A90948FDF762FE012001900E
:102A100000200290022003900320049001A90448A2
:102A2000FDF756FE05B000BD001002400010014049
:102A30000008014000B585B000BF00BF10488069A4
:102A400040F004000E4988610846806900F00400E7
:102A5000009000BF00BF00BF8815019001200290C8
:102A600003900320049001A90648FDF731FE00BF42
:102A7000012211020348FDF7C3FF00BF05B000BDEE
:102A8000001002400008014010B5FDF7D1FF4FF4DF
:102A9000E01000F053F84820FFF7C8FD4FF4E13094
:102AA00000F080F8FFF7C6FFFFF782FF00F004F8A0
:102AB000FFF7F0FD002010BD10B50BA0FDF784FB63
:102AC0000AA0FDF781FB12A0FDF77EFB14A0FDF725
:102AD0007BFB16A0FDF778FB04A0FDF775FB0BA0B0
:102AE000FDF772FB10BD00000A0000002A2A2A2A06
:102AF0002A2A2A2A2A2A2A2A2A2A2A2A2A2A2A2A36
:102B00002A2A2A2A2A2A2A2A2A2A2A2A0D0A0000B6
:102B1000544F46204D6F64756C650D0A000000002F
:102B200041544B2D4D423032310D0A0041544F4D2E
:102B300040414C49454E54454B0D0A0030B58FB0CD
:102B400005460124282105A8FDF767FC14216846E5
:102B5000FDF763FC0120059000040690002007901B
:102B600002200C90C1030D910E9505A8FEF734F9D3
:102B700004460CB100BFFEE70F2000900220019038
:102B8000002002904FF48060039000200490022106
:102B90006846FDF7EBFF04460CB100BFFEE70FB03F
:102BA00030BD000010B5044609480A4908600846CF
:102BB000446000218160C160016181610C2141613B
:102BC000FEF702FC012204490248FEF791FC10BD09
:102BD00000380140E80000201A00002010B591EAFA
:102BE000030F48BF83F0004300F1F883841A71EBB0
:102BF000030C05D2121943EB0C03001B61EB0C0113
:102C0000DFF824E14FEA1154A4EB135C1EEA430FF2
:102C100018BF9EEA445F73D023EA0E03DCF1200E56
:102C200021EA045143F4801332D322FA0CFE10EB54
:102C30000E0023FA0CFE41EB0E01CCF1200E03FA3C
:102C40000EFE10EB0E0051F10001B1F5801FCCF12A
:102C5000200E32D201EB045112FA0EF2BDE8104000
:102C600058BF7047401C38BF5FEA420218BF704728
:102C7000002814BF20F0010041F100014FEA410398
:102C800013F5001F38BF7047A1F1C04100F056BBDB
:102C9000012A43EB0302ACF1200CDCF11F0E32BF22
:102CA0004FF0000E23FA0CF310EB030041EB04513C
:102CB000B4EB115FD0D0A1EB045101F580114908AC
:102CC0005FEA300001EB04510ED350F1000038BF31
:102CD00012FA0EFE08D1BDE81040C9E7401C38BF0B
:102CE0005FEA4202CAD1C3E7BDE810404FEA4103A0
:102CF00013F5001F38BF7047A1F1C04100F01EBBA3
:102D00009EEA445F08D011EA5E0FBDE8104004BFA0
:102D100001F0004100207047BDE8104070B500F0A0
:102D2000BFFA00BF64FBBE3E0000E0FF491058BF81
:102D3000C1F140415B1058BFC3F140438B42EFF3F8
:102D4000008070472DE9C04130B4DFF8A0C23CEAF2
:102D5000111418BF3CEA131400F0EC8081EA03055B
:102D60001CEA111444EAD57418BF1CEA131500F0CC
:102D7000C780A4EB05044FF0004545EAC12145EAB0
:102D8000C32341EA505143EA525304F17F749942FC
:102D900004F500344FEAC0204FEAC22208BF904237
:102DA00000F09C804FEA13650FF24016765D4FEA03
:102DB000134506FB05F7C7F1807706FB07F74FEAD7
:102DC000D737A7FB03687642C8F58038A7FB06CE45
:102DD00038BFA8F1010807FB08E64FF0000EA6FB7C
:102DE000028CE6FB03CEDCF1000CCEF1004E38BFC6
:102DF000AEF1010EA6FB0C584FF000074FF0000596
:102E0000E6FB0E87A1FB08C6A0FB07CE16EB0E065D
:102E100045F10005E1FB076515F1E04E7EBFA4F525
:102E200080345FEA46066D4116F1800745F10005E2
:102E30004FEA17274FEA066647EA0567A6F1DE461E
:102E4000B6F1805F4FEA15251FD9384624F0010CF2
:102E500005EBC471BCF1FE6F01EB0C1102D8F0BCA4
:102E6000BDE8008124425CBF01F5801E9EEAC47F5C
:102E700002D4F0BCBDE80081244238D4F0BCA1F1FA
:102E8000C041BDE8004100F059BA4FEAD22242EAFF
:102E900043524FEAD323A7FB02864FEAD02040EAF1
:102EA000415007FB03661EEA0E0F4FEAD12105FBD6
:102EB000026658BFA6EB0056B6EB00564FEA520E1C
:102EC0004EEAC37E18EB0E0E56EB530EBDD518EB33
:102ED00002085E417F1C55F10005B6E74FF48015EE
:102EE0004FF000074FF000064FF00008ADE7F0BCD0
:102EF0004FF0000001F1C04101F00041BDE8008148
:102F000011EA0C1F0CEA131500D00CE013EA0C1F99
:102F100000F025804FF00000F0BC81EA030101F0D1
:102F20000041BDE80081F0BCBDE8004181EA030139
:102F300000F004BAF0BCBDE8004170B500F0B0F993
:102F4000097EFC3E00F007B881EA03014FF0000063
:102F500001F00041704781EA030100F0EFB9F0BCD5
:102F6000BDE800414FF0000021497047FFFDFBF92B
:102F7000F7F5F4F2F0EEEDEBE9E8E6E4E3E1E0DEAC
:102F8000DDDBDAD8D7D5D4D3D1D0CFCDCCCBCAC81E
:102F9000C7C6C5C4C2C1C0BFBEBDBCBBBAB9B8B745
:102FA000B6B5B4B3B2B1B0AFAEADACABAAA9A8A838
:102FB000A7A6A5A4A3A3A2A1A09F9F9E9D9C9C9B06
:102FC0009A999998979796959594939392919190B1
:102FD0008F8F8E8E8D8C8C8B8B8A89898888878742
:102FE0008685858484838382828181800000FF07B7
:102FF0000000F87F4FEA41034FEA5353A3F5806383
:10300000D3F11E03C8BFD3F1210C0CDD4FF00042F9
:1030100042EAC12242EA505232FA03FC8CEAE17CD5
:10302000ACEBE1707047102BC4BF0020704703F574
:10303000787CBCF1FF3F04D06FF0004282EA2100AF
:10304000704770B500F02CF9499224800020704739
:10305000F2E700004FEA1153A3F58063D3F11E039A
:10306000A8BFD3F1200C08DB4FF0004242EAC12296
:1030700052EA505232FA03F0704709420BD4102B37
:10308000C4BF0020704703F5787CBCF1FF3F05D03A
:103090004FF0FF3070474FF00000704770B500F000
:1030A000FFF800BF4992248000207047F0E7B0FA93
:1030B00080F310FA03F10AD0C3F11D0303F5806316
:1030C0004FEA41504FEA035202EBD12170474FF0D3
:1030D0000000704751EA030C17D41CF5801F58BF3D
:1030E000BCF5801F00F10680994218BF704708BFE9
:1030F0009042704707D711F5801F58BF13F5801F06
:1031000019D499427047894270471CF5801F08D531
:10311000BCF5801FF7D58B4218BF704708BF8242AD
:1031200070474FF4001C1CEB410F38BF1CEB430FE2
:1031300001D28B42704770B500F0B2F8922449007A
:103140004FF000514FF08053FFF7F0BDDFF848C15A
:1031500070B51CEA111E1EBF1CEA13159EEA0C0F67
:1031600095EA0C0F00F06F8081EA030423EA4C1308
:103170004EEAD47E21EA4C1141F4801143F48013CD
:10318000AE44A1FB024CA0FB0365AEF17F7E361975
:1031900055EB0C05A1FB034C4CF10003A0FB021CFA
:1031A00016EB0C06654153F10003094218BF46F0C7
:1031B000010613F4007F0BD14FEA03314FEA0530CB
:1031C000340341EA155140EA16506FF003020AE059
:1031D0004FEAC3214FEAC520F40241EA555140EAC3
:1031E00056506FF0020202EB2E4201EB025585EAC7
:1031F000CE710AD05FEA440C18BF24F0004450F1AD
:10320000000041F1000120EAD47040F2FE7C6245EA
:1032100000D270BDA84214BF4FF080444FF040442C
:10322000002E08BF0024BEF1806FA8BFA1F1C041ED
:10323000BDE8704080F282804FF0000001F1C04193
:1032400001F0004170479EEA0C0F0CEA131518BFFD
:1032500095EA0C0F06D04FF0000081EA030E0EF045
:10326000004170BD00F01CF88900013E00F007B875
:1032700000F009B84FEA430C5FEA5C5C08D081EAD1
:10328000030100F05BB84FEA410C5FEA5C5CF6D1E9
:103290004FF00000014970470000FF070000F87F71
:1032A0000EF1020E2EF0030E5EF8046B364205D4CA
:1032B000012A43EB030515F5001F12D8012841EB45
:1032C000010C1CF5001F0CD80ED14FEAD17C15F56E
:1032D000001F0CEB4C0C0CF1020C08BF4CEBD37C28
:1032E00004E04FF0080C01E04FEAD37C0CEB4C05F6
:1032F00026FA05F606F00706B6F1040C06D20EEB28
:10330000860CBDE870404CF0010C6047DFE80CF023
:10331000090B02024FF000414FF00000A1F500211F
:1033200070BD19461046012851EB010418BFD4F5B1
:10333000001484BF002001F0004170BD0808A0F512
:1033400000114FEA3101704753EA010C17D41CF504
:10335000801F58BFBCF5801F00F106808B4218BF4C
:10336000704708BF8242704707D713F5801F58BFC8
:1033700011F5801F19D48B4270479B4270471CF592
:10338000801F08D5BCF5801FF7D5994218BF70473C
:1033900008BF904270474FF4001C1CEB430F38BF2E
:1033A0001CEB410F01D2994270470FB40CBC03BC17
:1033B000FFF7C1BE91EA030F10B581F000413FF560
:1033C00015AC83F0004300F009B8000010B591EA95
:1033D000030F48BF83F000433FF508AC841A71EB3C
:1033E000030C07D212198CF0004C43EB0C03001BAA
:1033F00061EB0C01DFF8A4E14FEA1154A4EB135C7C
:103400001EEA430F18BF9EEA445F00F0B08023EA33
:103410006E03524221EA0451C3EB6E0338BF5B1EB8
:10342000DCF1200E25D322FA0CFE10EB0E0043FA3D
:103430000CFE41EB0E01CCF1200E03FA0EFE10EB58
:103440000E0051F10001CCF1200E29D412FA0EF237
:1034500001EB0451BDE8104058BF7047401C1CBF31
:10346000B2F1004F704700280CBF491C20F001004A
:10347000704712EB020E43EB030218BF4FF0010E30
:103480004EEA4202ACF1200CDCF11E0E54D943FA94
:103490000CFE10EB0E0051F1FF31CCF11E0ED5D514
:1034A0000EF1010E12FA0EFE404141EB010101EB5B
:1034B000445C5FEA5C5C10D910EBDE7001EB0451F8
:1034C00038BFBEF1004FBDE8104018BF704700285C
:1034D0000CBF491C20F00100704730D24FEAD42CB9
:1034E00011F5001124F400641BD0B1FA81F20B3AFB
:1034F000A41AA41ED2F12003914030FA03F3194319
:10350000904001EBCC71002C01EB0451BDE8104060
:10351000A8BF704701F1C0414FF0000001F0004129
:103520007047B0FA80F310FA03F100D110BDE41A2D
:10353000173C4805C90AE4E701EB045110BD4910E6
:1035400001EB0451BDE810404FEA300002E04FF0BB
:10355000000170474A0008BF0042F8D0B2F5001FD2
:1035600028BF704701F000414FF0000070479EEA0D
:10357000445F07D011EA5E0FBDE8104004BF002190
:1035800000207047BDE8104070B5FFF789FE00BF0E
:1035900040DFF63E83F00041104670470000E0FF38
:1035A00090EA010F48BF81F0004100F18282421A87
:1035B0003CBF801A89184FEAD0524FF07F4C1CEA6A
:1035C000410FA2EBD15318BF9CEA026F00F03B8081
:1035D0004FF0004C4CEA00204CEA012121FA03FC98
:1035E00010EB0C0C1ED202F1FF325FEA1C2040EB04
:1035F000C25038BF70471CF07F0F4FEA400C18BF15
:10360000BCF17F4F38BF7047C3F12003994008BF1A
:1036100020F00100BCF17F4F38BF7047A0F1C040DF
:1036200000F031BA4FEA3C00000A40EBC25028BF1C
:103630001CF0FF0F4FEA400CE6D018BFBCF17F4FE3
:1036400038BF7047EAE79CEA026F05D010EA5C0FCA
:1036500008BF00F00040704710B500F0CEF900BF81
:1036600064FBBE3E401058BFC0F14040491058BFF7
:10367000C1F140418142EFF3008070474FF47F0C6D
:103680001CEAD0121EBF1CEAD11392EA0C0F93EA77
:103690000C0F00F0858090EA010F48BF42F4807261
:1036A00040F4000C41F400002CF07F4120F07F40FA
:1036B00000B58142A2EB03020FF2081CACEB504EA6
:1036C000C0F100009EF800E04FEA4E0E00FB0EFC39
:1036D00038BF49004FEA2C1C02F5FA020CFB0EF32E
:1036E0004FEACE1E4FEA112C4FEAC1210EEB635E6A
:1036F00042EB22420EFB0CFC4FEA1C5300FB031171
:103700004FEA112C4FEA01310EFB0CFC4FEADC4C66
:1037100000FB0C11C14228BF09184CEB03335DF8C4
:1037200004EB10EB410143EBC250B2F57C0F38BF04
:10373000704729D512F0F00F1CBF00F1C04000F017
:1037400000407047008182838485868788898B8CBE
:103750008D8E8F919293959697999A9C9D9FA0A2FA
:10376000A3A5A7A8AAACAEB0B2B3B5B7B9BCBEC04A
:10377000C2C5C7C9CCCED1D4D7D9DCDFE2E6E9ECEB
:10378000F0F3F7FAFE0000004FEA400C0CF1807CE9
:10379000BCF17E4F28BF7047B0F1C04000F073B954
:1037A00090EA010F0CEAD11348BF42F480726245DF
:1037B00038BF634507D213F47F0F16D080EA0100AB
:1037C00000F00040704710B500F017F9097EFC3E8C
:1037D00000F005B880EA010000F00040704780EA80
:1037E000010000F0004000F04EB912F47F0F04BF5A
:1037F0000248704780EA010000F045B90000C07F30
:1038000041000B0ED3F19E0208D950F400034FEA99
:10381000032323FA02F048BF4042704710B500F07E
:10382000ECF800BF49922480002070476FF00042FE
:1038300082EA20007047000010F0004148BF40427B
:10384000B0FA80F310FA03F2C3F19D030BD051EAF2
:10385000C35101EB1220530638BF704700F101003D
:1038600008BF20F001007047B0FA80F310FA03F2AD
:10387000C3F19D030AD0D90501EB1220530638BFCE
:10388000704700F1010008BF20F001007047000000
:1038900050EA010C00F113801CF5000F58BFBCF575
:1038A000000F01D48842704707D710F5000F58BFAA
:1038B00011F5000F15D488427047894270471CF5F6
:1038C000000F04D5BCF5000FF7D5814270474FF0CB
:1038D000807C1CEB400F38BF1CEB410F01D28142B2
:1038E000704710B500F089F8922449004FF000505D
:1038F0004FF08051FFF7B6BE4FF47F0C1CEAD01298
:103900001EBF1CEAD11392EA0C0F93EA0C0F00F0D1
:10391000478090EA010F48BF42F480724FF0004C9C
:103920004CEA00204CEA012102EB0302A0FB011348
:10393000A2F50002002918BF43F001035B0028BF75
:103940004FEA330342EB22425FEA132C4CEBC250A6
:103950002EBFBCEB436FB2F57C0F70474FEA036C90
:10396000BCF1004F08BF20F00100B2F57C0F38BF5A
:1039700070470BD582F0FF0212F5803FC8BF704739
:1039800000F1C040D8BF00F00040704700F5000CC7
:103990005FEA4C0C48BF7047B0F1C04000F073B80C
:1039A00090EA010F0CEAD11348BF42F480726245DD
:1039B00038BF634504D280EA010000F00040704740
:1039C00010B500F01AF800BF8900013E00F007B8FA
:1039D00000F009B85FEA410C5FEA1C6C08D080EA8D
:1039E000010000F050B85FEA400C5FEA1C6CF6D1B1
:1039F0004FF00040A0F5800070470EF1020E2EF04F
:103A0000030E5EF8044B244204D44FEA4102B2F1A3
:103A10007F4F11D84FEA4003B3F17F4F0CD80ED13E
:103A20004FEAD07CB2F17F4F0CEB4C0C0CF1020C46
:103A300008BF4CEBD17C04E04FF0080C01E04FEAEA
:103A4000D17C0CEB4C0324FA03F404F00704B4F12A
:103A5000040C06D20EEB840CBDE810404CF0010CB7
:103A60006047DFE80CF0070802024FF00040A0F5C5
:103A7000800010BD0846420018BFD2F1807288BF96
:103A800000F0004010BDFF2141EAD050C005704752
:103A900080F0004090EA010F7FF589AD81F0004190
:103AA00000F007B890EA010F48BF81F000413FF5F0
:103AB0007EAD421A04D882F00042A0EB020011440D
:103AC0004FEAD0524FF07F4C1CEA410FA2EBD1538A
:103AD00018BF9CEA026F4AD04FF0004C4CEA00201D
:103AE0004CEA012121FA03FCB0EB0C0C0FD412F0CC
:103AF000FE0F36D05FEA4C001DD5001240EBC250DD
:103B000038BF70471CF03F0F18BF70470BE0A2F1A1
:103B100001025FEA1C2040EBC25038BF70471CF026
:103B20007F0F18BF7047C3F12003994014BF401E98
:103B300020F00100704780084FEA122308BF704749
:103B4000B0FA80FCA2EB0C02CCF1280C60FA0CF06D
:103B500093EA122F04BF00EBC25070474FEAC370C4
:103B60007047130A5FEADC1008BF7047F6E79CEA6B
:103B7000026F04D010EA5C0F08BF0020704710B538
:103B8000FFF73BFF40DFF63E81F00040704700004A
:103B900000000000000001020304060708090000FD
:103BA00000000102030400001300000053000000A5
:103BB000A3000000B3020000DB040000EB090000DA
:103BC000E31300009B280000CB4F0000D3810000CE
:103BD00010000000190000002D00000091000000FE
:103BE00002010000F5010000EC030000BC0700002A
:103BF000DC0E0000AF1700001A00000023000000D8
:103C00003D000000AD0000002F0100003E0200005A
:103C10007C040000AC08000086100000311A00008F
:103C2000021326C28CD2D532000000020003539149
:103C3000EF320002127E8E348F35C2D56335FF63BA
:103C400034FF85348C85358AD28C20D51200000053
:103C50000000000000000000000000000080EB22D7
:103C600000000002000E000000000002153A0000F3
:103C7000000000020D06000000000002005EC0E02F
:103C8000C0F0C083C082C0D075D000C000C001C0E9
:103C900002C003C004C005C006C00753917F7597DA
:103CA0000085BC0D85BD0EAE0DE50E7802C333CE8A
:103CB00033CED8F92400FFEE3408F5138F14788D35
:103CC000E67003020201AA13A9077B019000031208
:103CD0000FF4FD7C007F1412162EAA13A914900075
:103CE00002120FF4FD0F12162EAA13A91490000150
:103CF000120FF4FD0F12162E851482851383E0FD3A
:103D00000F12162E789B121624787F7F201216250C
:103D1000AF9FEFFD7F2212162EAF9EEFFD7F231285
:103D2000162EAF9DEFFD7F2412162E7888E6FD7FBC
:103D300026121627787D121624181216247899E672
:103D4000640F60030201EE7894760175FF0375FF3E
:103D5000017853E6FD70527897A69E08A69F785288
:103D6000E67892F67851E67893F6C37993E77898F7
:103D700096FF19E718967878F608A60718E6131341
:103D8000543FFF7E00EEF608EFF6D39400EE940069
:103D9000406F7879E6184660687F0F7E001216083B
:103DA00008E6161870EC1680E97897A69D08A69E7E
:103DB0007892A6057852E67893F6C37993E77898D7
:103DC00096FF19E718967878F608A60718E6FE0811
:103DD000E67802CEC313CE13D8F9FF7878EEF60852
:103DE000EFF6D39400EE940040177879E618466019
:103DF000107F0F7E0012160808E6161870EC168069
:103E0000E97854E6FE08E6FF1215EC02081675FF85
:103E10000375FF00789176007D0E7C007F07020617
:103E20002AE51424FCF582E51334FFF583E0FCA3B6
:103E3000E0FDA3E0FEA3E0FFE5142404F582E435F1
:103E400013F583E0F8A3E0F9A3E0FAA3E0FBC312C3
:103E500011A8E514403F24FCF582E51334FFF583F7
:103E6000E0F8A3E0F9A3E0FAA3E0FBE5142404F5ED
:103E700082E43513F583E0FCA3E0FDA3E0FEA3E0BC
:103E8000C39BF512EE9AF511ED99F510EC98F50F2C
:103E9000750A00803D2404F582E43513F583E0F8CB
:103EA000A3E0F9A3E0FAA3E0FBE51424FCF582E526
:103EB0001334FFF583E0FCA3E0FDA3E0FEA3E0C321
:103EC0009BF512EE9AF511ED99F510EC98F50F753A
:103ED0000A01AF12AE11AD10AC0F78071211CC8FE2
:103EE000128E118D108C0F759718850FF18510F2B9
:103EF0008511F38512F4E51424FCF582E51334FFF3
:103F0000F583E0FCA3E0FDA3E0FEA3E0FFE51424BD
:103F100004F582E43513F583E0F8A3E0F9A3E0FAB1
:103F2000A3E02FFFEA3EFEE93DFDE83CFC780112EC
:103F300011CCC004C005C006C00785148285138358
:103F4000E0FCA3E0FDA3E0FEA3E0FF78021211CCA9
:103F5000D003D002D001D000C3EF9BF512EE9AF54A
:103F600011ED99F510EC98F50F8510F58511F68592
:103F700012F7000000000085FB0B85FC0CE50A60D1
:103F800019AE0DE50E7807C333CE33CED8F9C395FD
:103F90000CF50CEE950BF50B8016AE0DE50E7807C3
:103FA000C333CE33CED8F9250CF50CE50B3EF50B1B
:103FB00075E10075E21F850BE3850CE485EA088551
:103FC000EB09759700788CE6700302067C7873E63F
:103FD000700302063008E6704C789CE6FE08E6FFA7
:103FE000C3E50E9FFFE50D9EFE788BEF26F618EEDB
:103FF00036F6786D1211DF851482851383E0F8A3FD
:10400000E0F9A3E0FAA3E02FFFEA3EFEE93DFDE878
:104010003CFC786D1211F8787476017533027B40A0
:104020007A000206747880E6FE08E6FFC37896966A
:10403000EE18964005A60608A60778947601786CD7
:10404000E6C3940474809480500302081678737653
:1040500000788AE6FE08E630E1147802CEC313CE7B
:1040600013D8F92401788BF6E43E18F68015788A87
:10407000E6FE08E67802CEC313CE13D8F9798BF7A3
:10408000EE19F7786D1211DF78021211B9786D12FE
:1040900011F8786D1211DFC004C005C006C00778A2
:1040A00057E6F9C4540FFF08E6FD540F2FFFE43321
:1040B000FEEDC4540F7C00540F2FFFEC3EFE08E6CB
:1040C000FD540F7A002FFFEA3EFEEDC4540F2FFF80
:1040D000EC3EFE08E6FD540F2FFFEA3EFEEDC45411
:1040E0000F2FFFEC3EFE08E6FD540F2FFFEA3EFEC9
:1040F000EDC4540F2FFFEC3EFE08E6FD540F2FFFDA
:10410000EA3EFEEDC4540F2FFFEC3EFE08E6FD54E0
:104110000F2FFFEA3EFEEDC4540F2FFFEC3EFE785A
:1041200056E6FDC4540FFBED540F2BFDEA33FCE9BA
:10413000540F2DFDEA3CCD2FFFED3EAB07FA339532
:10414000E0F9F8D007D006D005D004121116786D2A
:104150001211F87853E6FFE4FCFDFEFBFA7901F852
:1041600012108BC004A905AA06AB077852E6FEE43C
:10417000FCFDD0002BFFEA3EFEED39FDEC38FCC023
:1041800004A905AA06AB077851E6FFE4FCFDFED0C2
:1041900000EB2FFFEE3AFEED39FDEC38FCE4FB7A44
:1041A00003F9F81215898E0B8F0C759718850BE1A2
:1041B000850CE27895E6F5E308E6F5E400000000FA
:1041C00085EA1185EB127597009013BBE493C31336
:1041D000FFEF2512FFE43511FEE43510FDE4350F45
:1041E000FCC007E493FBE4FAF9F8D007121116EFCC
:1041F0002404786AF6788AE6FC08E6FD7F0C12163D
:104200002EE47FFF7EFFFDFC786D1211EBD31211BF
:10421000A84009786D1212040000FFFF7870E6FDD7
:104220007C007F0D121627786AE6FD0F12162E7D90
:10423000AA7F0812162E7895760008760075FF037F
:1042400075FF00789176007D0E1F12162E0208165B
:10425000851482851383E0FCA3E0FDA3E0FEA3E0C8
:10426000FF787A1211F8C3E509788396FFE50818FC
:1042700096FE7865E6FD3395E0FCC3EF9DF509EE0B
:104280009CF508789AF608A609788D7601753301B1
:104290007B6F7A017D001214EA020816789CA60D45
:1042A00008A60E787EA60808A6097867E6FE08E646
:1042B000FFD3E5099FE5089E4010E5099F7883F646
:1042C000E5089E18F67519008014C37868E695090C
:1042D000FF18E695087882F608A607751901759704
:1042E000087883E6FD7C007F1C12162E18E6FFEF8F
:1042F000FD7F1D12162EE6FFF5E108E6FEF5E275DC
:10430000E30075E4167862E6547F7884F6E5196078
:1043100013E6FDD395EB4006ED95EBF68018788417
:10432000760080127884E5EB26F6E6D3943F74801D
:1043300094804002763F7884E64480F68FE18EE2F6
:1043400075E30075E4E1E519AFEB6030C3E49FF578
:1043500016E49400F5157882E6F5E108E6F5E275D5
:10436000E30075E4FAAFEBEF24ECFFE434FFFE7CEE
:10437000007D051210558E1A8F1B80057515008F54
:1043800016759700C3E5169423E515648094804064
:10439000087517FF751801804EC3E51694F6E515EC
:1043A0006480947F4014E5169423E515648094801E
:1043B0005008751700751800802DC3E51694ECE5BC
:1043C000156480947F4014E51694F6E51564809496
:1043D0007F50087517017518FF800CAF1BEF240282
:1043E000F517EF24FEF5187871E62517F517FF7E0F
:1043F00000D3940074809480500690142DE48016AD
:10440000D3EF940AEE648094804006901437E480E1
:1044100005E51790142D937890F67882A60808A6E3
:1044200009788C7601752114752200752304752492
:10443000007A10121438D007D006D005D004D0036B
:10444000D002D001D000D0D0D082D083D0F0D0E044
:104450003275FF0175890175A8827B007A00794069
:104460007F071215D27840E630E30302098F759773
:1044700020E4F59A759C01F59CAF9BEFF4700E75E6
:104480009A01759C01F59C78447602800D759A31ED
:10449000759C01E4F59C78447632759337859B943E
:1044A0007596027F147E00120016759307759408A6
:1044B000759602E47850F608F608F608760208F6D3
:1044C00008767B0876650876870876A90876DB0883
:1044D00076FE0876FF0876DE08766A7861A69B7815
:1044E0006AF6785E76017869762E783FF6783FE650
:1044F000C39405748094805022E6FF784426F59A90
:10450000759C0100E4F59CFEFB74622FF9EE34000B
:10451000FAE59B121021783F0680D2759A23759C8C
:104520000100E4F59C7845A69B759A07759C0100EF
:10453000F59C08A69B759A08759C0100F59C08A639
:104540009B7F14FE120016783F7605783FE6C394F1
:1045500007748094805040E6FF784426F59A759C55
:104560000100E4F59CFEFB74622FF9EE3400FAE5DD
:104570009B12102108E664207003008015E4786720
:10458000F608F6007847E6FE18E6FDEE7867F6EDE9
:1045900008F6783F0680B4E4F5977D1EFC7F05128F
:1045A000162E7D667F0812162E7D0F1F12162E788E
:1045B00071E6FD7C007F1F12162E78947601E47858
:1045C00089F67873F67891F678727601786CF678D9
:1045D0008AF608F6786D12120400000000E478767E
:1045E000F608F67895F608F67880F608F67862E62A
:1045F0007884F67866E67890F6901432E493FF7843
:1046000066E6B507067871760580517866E6C39F41
:104610005022E4783FF6783FE6FFC3940574809417
:10462000805039EF90142D93786666700280207860
:104630003F0680E2783F7606783FE6FFC3940B742E
:104640008094805017EF90142D93786666700878E8
:104650003FE67871F68005783F0680DC7871E6FDEC
:104660007C007F1E12162E7D047F4112162E7D0ABD
:104670007F5112162E7D217FD612162E7FDC121648
:104680002EE4FD7FF512162E7DF07F5812162EFBBC
:104690007A0079997F0A1215D2E4F58E75B80675FD
:1046A000880575E80E75A8867899E624F7601924C0
:1046B000EA600E241F6003020BB17891E6F5878053
:1046C000E77D0F7C00020BA9E47899F67F0C1215A8
:1046D000CD7A0079437F0D1215D27A0079417F0E91
:1046E0001215D27840E6703318F6783FE6FFC378AB
:1046F00043964003020B82EF240CFF7841E67C00D6
:104700007B002450F9EC3400FA783FE629F9EC3AC2
:10471000FA120FDBFD12162E0680CF7840E66401F8
:10472000702C18F6783FE6FFC37843965074EF2458
:104730000FFF7841E67C007B002450F9EC3400FA4E
:10474000783FE629F9EC3AFA1215D20680D678407D
:10475000E66403704D7F011215CD7D087C007F015A
:1047600012162E759720E418F6783FE6FFC37843BB
:104770009650217841E6F59A759C0100E4F59C0875
:10478000A69BEF240FFFE6FD7C0012162E1806787C
:104790003F0680D5E4F5977840E6FD7C007F011266
:1047A000162E7840E66406701A7D18FC7F0C1216EF
:1047B0002E7D050F12162E7D030F12162E7D010F72
:1047C00012162EE4F5FF7D0FFC7F0712162E020A4B
:1047D000887889E670047F0180027F007894E6FE85
:1047E00070047D0180027D00ED5F60057891E6F543
:1047F000877899E6FD640F6005ED640D7005EE6441
:1048000001600A7899E6640E6003020A88E4788EF3
:10481000F6788CF67D01FC7FBD12162E7F501216A5
:104820002E7864E6FD7FD712162E18E6FD7FE4127F
:10483000162E785EE66401700D7884E6FD7FC01266
:10484000162E78908018785EE66403700478848071
:10485000027862E6FD7C007FC012162E7866E6FDC7
:104860007FF412162E7899E6640D7040FDFC7F45AA
:1048700012162E0F12162E7D030F12162E7D640FA8
:1048800012162EFD0F12162E7D647F4C12162EFD71
:104890000F12162E7D107F4A12162EFD0F12162EA5
:1048A00078737601786C067874F680477851E6FD67
:1048B0007C007F4512162E08E6FD0F12162E08E624
:1048C000FD0F12162E7D6F0F12162E7D010F121680
:1048D0002E7D100F12162EE4FD0F12162E7D7F0F67
:1048E00012162EFD0F12162E7D100F12162EFD0F12
:1048F00012162E7899E6640E7003F68004E478941C
:10490000F67FB87E0B1200167597017889E670065F
:10491000789176018004E47891F67D077C007F50E1
:1049200012162E020A88C0E0C0F0C083C082C0D038
:1049300075D000C000C001C002C003C004C005C0E3
:1049400006C0075391BF759700788EE6F96408702A
:104950000A7533027BBF7A01FD805FE9640760035B
:10496000020FA0789C08E6785026786926F526255F
:10497000E0F5267873E66048752B04752C007525E4
:1049800000C3E5259465748094805025852C82852C
:104990002B8375F002E52512121DE0FEA3E0FFD384
:1049A000788196EE18964005A60608A6070525808C
:1049B000D07533027B407A007D001214EA020FC0EA
:1049C000788E06752B04752C20752A0075290075C4
:1049D0002800752700752500C3E525942074809470
:1049E00080502E852C82852B8375F002E5251212CE
:1049F0001DE0FEA3E0FFE4FCFDE52A2FF52AE529F2
:104A00003EF529ED3528F528EC3527F527052580D5
:104A1000C7AF2AAE29AD28AC2778021211B98F2A68
:104A20008E298D288C2778851211F8E42526FFE43D
:104A30003404AD07FCED24F0F52CEC34FFF52B74B9
:104A4000F02DFD74FF3CFC752500C3E525940A7428
:104A500080948050348D828C8375F002E52512128B
:104A60001DE0FEA3E0FF852C82852B83E0FAA3E006
:104A7000C39FEA9E500FE52575F002A4AEF02DF518
:104A80002CEE3CF52B052580C1852C82852B83A33C
:104A9000E0FD7C007F1A12162E852C82852B83E088
:104AA000FD0F12162EAF2AAE29AD28AC27780312BF
:104AB00011B99013BBE493F9C313FD7C00852C82DC
:104AC000852B83E0FAA3E02DFDEC3ACDC39F7881DE
:104AD000F6ED9E18F675971875F10075F200E6F57B
:104AE000F308E6F5F475F50075F60089F7752B0007
:104AF000752C000000000000000000AFFC859DE167
:104B0000859EE275E300786AE6FEF5E400000000A9
:104B100075F10085EAF285EBF385ECF475F5007824
:104B200053E6F5F618E6F5F7000000000000000077
:104B300000E5FCC39E5006E5FC04FE8002AEFCEFDF
:104B40002402FDE433FCEEFBD3ED9B7480F86C98FB
:104B50004004AF068004EF2402FF75E1008FE27588
:104B6000E300752500C3E525947B74809480502E66
:104B7000E5259013B293F5E4852C82852B83E5EB34
:104B8000F0AA2BA92C7B01900001E5EC12103374E4
:104B900002252CF52CE4352BF52B052580C774EE6A
:104BA0002526F5262400FBE43404FA75210075223D
:104BB00000F5238B247D7B7C007F02121440802033
:104BC000788EE675F004A4FEE42400F522EE341895
:104BD000F5217523047524007A04121438788E06A2
:104BE000D007D006D005D004D003D002D001D00029
:104BF000D0D0D082D083D0F0D0E032BB0106898201
:104C00008A83E0225002E722BBFE02E32289828AE5
:104C100083E49322BB010CE58229F582E5833AF512
:104C200083E0225006E92582F8E622BBFE06E9254C
:104C300082F8E222E58229F582E5833AF583E4935E
:104C400022BB010689828A83F0225002F722BBFE32
:104C500001F322F8BB010DE58229F582E5833AF5DF
:104C600083E8F0225006E92582C8F622BBFE05E95A
:104C70002582C8F222C2D5EC30E709B2D5E4C39D43
:104C8000FDE49CFCEE30E715B2D5E4C39FFFE49E43
:104C9000FE121229C3E49DFDE49CFC80031212293C
:104CA00030D507C3E49FFFE49EFE22E88FF0A4CC3A
:104CB0008BF0A42CFCE98EF0A42CFC8AF0EDA42C43
:104CC000FCEA8EF0A4CDA8F08BF0A42DCC3825F012
:104CD000FDE98FF0A42CCD35F0FCEB8EF0A4FEA9FD
:104CE000F0EB8FF0A4CFC5F02ECD39FEE43CFCEA0A
:104CF000A42DCE35F0FDE43CFC2275F00875820051
:104D0000EF2FFFEE33FECD33CDCC33CCC58233C590
:104D1000829BED9AEC99E58298400CF582EE9BFE21
:104D2000ED9AFDEC99FC0FD5F0D6E4CEFBE4CDFA7C
:104D3000E4CCF9A88222B800C1B90059BA002DEC20
:104D40008BF084CFCECDFCE5F0CBF97818EF2FFFB8
:104D5000EE33FEED33FDEC33FCEB33FB10D7039960
:104D60004004EB99FB0FD8E5E4F9FA227818EF2F0D
:104D7000FFEE33FEED33FDEC33FCC933C910D7052C
:104D80009BE99A4007EC9BFCE99AF90FD8E0E4C94B
:104D9000FAE4CCFB2275F010EF2FFFEE33FEED337B
:104DA000FDCC33CCC833C810D7079BEC9AE89940A8
:104DB0000AED9BFDEC9AFCE899F80FD5F0DAE4CD0A
:104DC000FBE4CCFAE4C8F922EB9FF5F0EA9E42F04E
:104DD000E99D42F0E89C45F022E8600FECC313FC2B
:104DE000ED13FDEE13FEEF13FFD8F122E8600FEF95
:104DF000C333FFEE33FEED33FDEC33FCD8F122E696
:104E0000FC08E6FD08E6FE08E6FF22E6FB08E6F9F8
:104E100008E6FA08E6CBF822ECF608EDF608EEF61E
:104E200008EFF622D083D082E493F608740193F65B
:104E300008740293F608740393F6740473A425822D
:104E4000F582E5F03583F58322BC000BBE0029EF27
:104E50008DF084FFADF022E4CCF875F008EF2FFF61
:104E6000EE33FEEC33FCEE9DEC984005FCEE9DFE2F
:104E70000FD5F0E9E4CEFD22EDF8F5F0EE8420D276
:104E80001CFEADF075F008EF2FFFED33FD400798E5
:104E90005006D5F0F222C398FD0FD5F0EA22C0E00B
:104EA000C0F0C083C082C0D075D000C000C001C0B7
:104EB00002C003C004C005C006C007C094C0937BF5
:104EC000007A0079997F0A1215D275FF01787376FE
:104ED000007894760178897600789176007899E662
:104EE00024F3600C14604014603D2406702D80375C
:104EF000786C7600788A7600087600786D12120455
:104F00000000000078767600087600789576000834
:104F1000760078807600087600800C7D0F7C007F1C
:104F20000712162E758701D093D094D007D006D0E3
:104F300005D004D003D002D001D000D0D0D082D090
:104F400083D0F0D0E032783FE4F6D8FD75819D0241
:104F5000136D020831E493A3F8E493A34003F680B1
:104F600001F208DFF48029E493A3F85407240CC865
:104F7000C333C4540F4420C8834004F45680014610
:104F8000F6DFE4800B010204081020408090000846
:104F9000E47E019360BCA3FF543F30E509541FFE3B
:104FA000E493A360010ECF54C025E060A840B8E4AC
:104FB00093A3FAE493A3F8E493A3C8C582C8CAC52F
:104FC00083CAF0A3C8C582C8CAC583CADFE9DEE7C1
:104FD00080BE040C1724323E454A4E514D4940369E
:104FE0002A231C18151412110F0E0D0C0B0B0A0A94
:104FF0000909090808080807070606060606050540
:105000000505040404040404040303030303030365
:105010000202020202020202020202020202020270
:105020000000000000000000000000000000000080
:105030000000000000000000000000000000000070
:1050400000000000000000000000000000A78A8BA4
:1050500090919293949596977B007D007C02E4FF5B
:105060007836A60708A60408A60508A60208A6031F
:1050700008A62108A62208A62308A6247597047866
:1050800037E6FC08E6FDECF5D28DD308E6FC08E631
:10509000FDECF5D48DD508E6FC08E6FDECF5D68DE3
:1050A000D708E6FC08E6FDECF5D98DDA7836E6FFA0
:1050B0004401F5D18FD122784FEFF624FE6016140B
:1050C000603524027043E4F5BEF5BFF5C275C31127
:1050D00075C401802E7856E6F5BE08E6F5BF08E6F1
:1050E000F5C208E6F5C308E6F5C408E6F5C508E626
:1050F000F5C608E6F5C72275BE01E4F5BFF5C2F5B1
:10510000C3F5C4F5C5F5C6F5C7227C087F607E04EB
:105110007848A60608A60708A60408A60508A60259
:1051200008A60308A6337597027848E6FC08E6FD52
:10513000ECF5A28DA308E6FC08E6FDECF5A48DA530
:1051400008E6FC08E6FDECF5A68DA70008E6FF12D0
:1051500014970075A10375A10222C0E0C0D075D0DC
:1051600000C000C002C003C004C005C006C0075391
:1051700091DF7D077C007FBD12162EE4FD7F50126B
:10518000162EF597788DF67533027B3CFA7C087FF6
:10519000607E341214F0D007D006D005D004D003BE
:1051A000D002D000D0D0D0E032C2D5E830E70FB284
:1051B000D5E4C39BFBE49AFAE499F9E498F8EC305F
:1051C000E717B2D51215BF121116E4C39BFBE49A80
:1051D000FAE499F9E498F8800312111630D50DE439
:1051E000C39FFFE49EFEE49DFDE49CFC22FB7A004D
:1051F00079408F93759601E4FFEFC3940274809415
:10520000805004000F80F2E595021021EF4E6017E8
:10521000C2D5758CFD758A90D28C20D5030080FA9A
:10522000EF1F70E81E80E522EF4E6017C2D5758C27
:10523000FF758AC8D28C20D5030080FAEF1F70E872
:105240001E80E5220FE6FD12162E18E6FD0F8D9446
:105250008F937596022200000000000000000000FD
:10526000000000000000000000000000000000003E
:10527000000000000000000000000000000000002E
:10528000000000000000000000000000000000001E
:10529000000000000000000000000000000000000E
:105C2000405C00080000002020000000280100085F
:105C3000605C00082000002080050000440100088E
:105C40000024F4000000000010000000010000002B
:105C5000000000000000000000000000D83000003C
:04000005080000ED02
:00000001FF
